{
  "_format": "hh-sol-artifact-1",
  "contractName": "TFS",
  "sourceName": "contracts/08_honeypot_token_2.sol",
  "abi": [
    {
      "inputs": [
        {
          "internalType": "address",
          "name": "routerAddress",
          "type": "address"
        }
      ],
      "stateMutability": "nonpayable",
      "type": "constructor"
    },
    {
      "anonymous": false,
      "inputs": [
        {
          "indexed": true,
          "internalType": "address",
          "name": "owner",
          "type": "address"
        },
        {
          "indexed": true,
          "internalType": "address",
          "name": "spender",
          "type": "address"
        },
        {
          "indexed": false,
          "internalType": "uint256",
          "name": "value",
          "type": "uint256"
        }
      ],
      "name": "Approval",
      "type": "event"
    },
    {
      "anonymous": false,
      "inputs": [
        {
          "indexed": true,
          "internalType": "address",
          "name": "previousOwner",
          "type": "address"
        },
        {
          "indexed": true,
          "internalType": "address",
          "name": "newOwner",
          "type": "address"
        }
      ],
      "name": "OwnershipTransferred",
      "type": "event"
    },
    {
      "anonymous": false,
      "inputs": [
        {
          "indexed": true,
          "internalType": "address",
          "name": "from",
          "type": "address"
        },
        {
          "indexed": true,
          "internalType": "address",
          "name": "to",
          "type": "address"
        },
        {
          "indexed": false,
          "internalType": "uint256",
          "name": "value",
          "type": "uint256"
        }
      ],
      "name": "Transfer",
      "type": "event"
    },
    {
      "inputs": [
        {
          "internalType": "address",
          "name": "owner",
          "type": "address"
        },
        {
          "internalType": "address",
          "name": "spender",
          "type": "address"
        }
      ],
      "name": "allowance",
      "outputs": [
        {
          "internalType": "uint256",
          "name": "",
          "type": "uint256"
        }
      ],
      "stateMutability": "view",
      "type": "function"
    },
    {
      "inputs": [
        {
          "internalType": "address",
          "name": "spender",
          "type": "address"
        },
        {
          "internalType": "uint256",
          "name": "amount",
          "type": "uint256"
        }
      ],
      "name": "approve",
      "outputs": [
        {
          "internalType": "bool",
          "name": "",
          "type": "bool"
        }
      ],
      "stateMutability": "nonpayable",
      "type": "function"
    },
    {
      "inputs": [
        {
          "internalType": "address",
          "name": "account",
          "type": "address"
        }
      ],
      "name": "balanceOf",
      "outputs": [
        {
          "internalType": "uint256",
          "name": "",
          "type": "uint256"
        }
      ],
      "stateMutability": "view",
      "type": "function"
    },
    {
      "inputs": [
        {
          "internalType": "uint256",
          "name": "amount",
          "type": "uint256"
        }
      ],
      "name": "burn",
      "outputs": [],
      "stateMutability": "nonpayable",
      "type": "function"
    },
    {
      "inputs": [],
      "name": "decimals",
      "outputs": [
        {
          "internalType": "uint8",
          "name": "",
          "type": "uint8"
        }
      ],
      "stateMutability": "pure",
      "type": "function"
    },
    {
      "inputs": [
        {
          "internalType": "address",
          "name": "account",
          "type": "address"
        }
      ],
      "name": "excludeFromReward",
      "outputs": [],
      "stateMutability": "nonpayable",
      "type": "function"
    },
    {
      "inputs": [
        {
          "internalType": "address",
          "name": "account",
          "type": "address"
        }
      ],
      "name": "includeInReward",
      "outputs": [],
      "stateMutability": "nonpayable",
      "type": "function"
    },
    {
      "inputs": [
        {
          "internalType": "address",
          "name": "",
          "type": "address"
        }
      ],
      "name": "marketersAndDevs",
      "outputs": [
        {
          "internalType": "bool",
          "name": "",
          "type": "bool"
        }
      ],
      "stateMutability": "view",
      "type": "function"
    },
    {
      "inputs": [
        {
          "internalType": "uint256",
          "name": "amount",
          "type": "uint256"
        }
      ],
      "name": "mint",
      "outputs": [],
      "stateMutability": "nonpayable",
      "type": "function"
    },
    {
      "inputs": [],
      "name": "name",
      "outputs": [
        {
          "internalType": "string",
          "name": "",
          "type": "string"
        }
      ],
      "stateMutability": "pure",
      "type": "function"
    },
    {
      "inputs": [],
      "name": "owner",
      "outputs": [
        {
          "internalType": "address",
          "name": "",
          "type": "address"
        }
      ],
      "stateMutability": "view",
      "type": "function"
    },
    {
      "inputs": [
        {
          "internalType": "uint256",
          "name": "newNumber",
          "type": "uint256"
        }
      ],
      "name": "setNumber",
      "outputs": [],
      "stateMutability": "nonpayable",
      "type": "function"
    },
    {
      "inputs": [
        {
          "internalType": "uint256",
          "name": "newRemainder",
          "type": "uint256"
        }
      ],
      "name": "setRemainder",
      "outputs": [],
      "stateMutability": "nonpayable",
      "type": "function"
    },
    {
      "inputs": [],
      "name": "symbol",
      "outputs": [
        {
          "internalType": "string",
          "name": "",
          "type": "string"
        }
      ],
      "stateMutability": "pure",
      "type": "function"
    },
    {
      "inputs": [],
      "name": "syncPair",
      "outputs": [],
      "stateMutability": "nonpayable",
      "type": "function"
    },
    {
      "inputs": [],
      "name": "totalSupply",
      "outputs": [
        {
          "internalType": "uint256",
          "name": "",
          "type": "uint256"
        }
      ],
      "stateMutability": "view",
      "type": "function"
    },
    {
      "inputs": [
        {
          "internalType": "address",
          "name": "recipient",
          "type": "address"
        },
        {
          "internalType": "uint256",
          "name": "amount",
          "type": "uint256"
        }
      ],
      "name": "transfer",
      "outputs": [
        {
          "internalType": "bool",
          "name": "",
          "type": "bool"
        }
      ],
      "stateMutability": "nonpayable",
      "type": "function"
    },
    {
      "inputs": [
        {
          "internalType": "address",
          "name": "sender",
          "type": "address"
        },
        {
          "internalType": "address",
          "name": "recipient",
          "type": "address"
        },
        {
          "internalType": "uint256",
          "name": "amount",
          "type": "uint256"
        }
      ],
      "name": "transferFrom",
      "outputs": [
        {
          "internalType": "bool",
          "name": "",
          "type": "bool"
        }
      ],
      "stateMutability": "nonpayable",
      "type": "function"
    }
  ],
  "bytecode": "0x60806040526009600a6200001491906200072b565b6305f5e1006200002591906200077c565b600955600019600a556000600b553480156200004057600080fd5b5060405162002eb938038062002eb9833981810160405281019062000066919062000847565b6000620000786200056060201b60201c565b9050806000806101000a81548173ffffffffffffffffffffffffffffffffffffffff021916908373ffffffffffffffffffffffffffffffffffffffff1602179055508073ffffffffffffffffffffffffffffffffffffffff16600073ffffffffffffffffffffffffffffffffffffffff167f8be0079c531659141344cd1fd0a4f28419497f9722a3daafe3b4186f6b6457e060405160405180910390a35080600160006101000a81548173ffffffffffffffffffffffffffffffffffffffff021916908373ffffffffffffffffffffffffffffffffffffffff160217905550600160009054906101000a900473ffffffffffffffffffffffffffffffffffffffff1673ffffffffffffffffffffffffffffffffffffffff1663c45a01556040518163ffffffff1660e01b815260040160206040518083038186803b158015620001c057600080fd5b505afa158015620001d5573d6000803e3d6000fd5b505050506040513d601f19601f82011682018060405250810190620001fb919062000847565b73ffffffffffffffffffffffffffffffffffffffff1663c9c6539630600160009054906101000a900473ffffffffffffffffffffffffffffffffffffffff1673ffffffffffffffffffffffffffffffffffffffff1663ad5c46486040518163ffffffff1660e01b815260040160206040518083038186803b1580156200028057600080fd5b505afa15801562000295573d6000803e3d6000fd5b505050506040513d601f19601f82011682018060405250810190620002bb919062000847565b6040518363ffffffff1660e01b8152600401620002da9291906200088a565b602060405180830381600087803b158015620002f557600080fd5b505af11580156200030a573d6000803e3d6000fd5b505050506040513d601f19601f8201168201806040525081019062000330919062000847565b600260006101000a81548173ffffffffffffffffffffffffffffffffffffffff021916908373ffffffffffffffffffffffffffffffffffffffff16021790555060095460046000620003876200056860201b60201c565b73ffffffffffffffffffffffffffffffffffffffff1673ffffffffffffffffffffffffffffffffffffffff1681526020019081526020016000208190555060001960056000600260009054906101000a900473ffffffffffffffffffffffffffffffffffffffff1673ffffffffffffffffffffffffffffffffffffffff1673ffffffffffffffffffffffffffffffffffffffff16815260200190815260200160002060006200043b6200056860201b60201c565b73ffffffffffffffffffffffffffffffffffffffff1673ffffffffffffffffffffffffffffffffffffffff168152602001908152602001600020819055506001600360006200048f6200056860201b60201c565b73ffffffffffffffffffffffffffffffffffffffff1673ffffffffffffffffffffffffffffffffffffffff16815260200190815260200160002060006101000a81548160ff021916908315150217905550620004f06200056860201b60201c565b73ffffffffffffffffffffffffffffffffffffffff16600073ffffffffffffffffffffffffffffffffffffffff167fddf252ad1be2c89b69c2b068fc378daa952ba7f163c4a11628f55a4df523b3ef600954604051620005519190620008c8565b60405180910390a350620008e5565b600033905090565b60008060009054906101000a900473ffffffffffffffffffffffffffffffffffffffff16905090565b7f4e487b7100000000000000000000000000000000000000000000000000000000600052601160045260246000fd5b60008160011c9050919050565b6000808291508390505b60018511156200061f57808604811115620005f757620005f662000591565b5b6001851615620006075780820291505b80810290506200061785620005c0565b9450620005d7565b94509492505050565b6000826200063a57600190506200070d565b816200064a57600090506200070d565b81600181146200066357600281146200066e57620006a4565b60019150506200070d565b60ff84111562000683576200068262000591565b5b8360020a9150848211156200069d576200069c62000591565b5b506200070d565b5060208310610133831016604e8410600b8410161715620006de5782820a905083811115620006d857620006d762000591565b5b6200070d565b620006ed8484846001620005cd565b9250905081840481111562000707576200070662000591565b5b81810290505b9392505050565b6000819050919050565b600060ff82169050919050565b6000620007388262000714565b915062000745836200071e565b9250620007747fffffffffffffffffffffffffffffffffffffffffffffffffffffffffffffffff848462000628565b905092915050565b6000620007898262000714565b9150620007968362000714565b9250817fffffffffffffffffffffffffffffffffffffffffffffffffffffffffffffffff0483118215151615620007d257620007d162000591565b5b828202905092915050565b600080fd5b600073ffffffffffffffffffffffffffffffffffffffff82169050919050565b60006200080f82620007e2565b9050919050565b620008218162000802565b81146200082d57600080fd5b50565b600081519050620008418162000816565b92915050565b60006020828403121562000860576200085f620007dd565b5b6000620008708482850162000830565b91505092915050565b620008848162000802565b82525050565b6000604082019050620008a1600083018562000879565b620008b0602083018462000879565b9392505050565b620008c28162000714565b82525050565b6000602082019050620008df6000830184620008b7565b92915050565b6125c480620008f56000396000f3fe608060405234801561001057600080fd5b50600436106101165760003560e01c80636261a5d6116100a2578063989853311161007157806398985331146102e1578063a0712d68146102fd578063a9059cbb14610319578063b59c097414610349578063dd62ed3e1461035357610116565b80636261a5d61461024557806370a08231146102755780638da5cb5b146102a557806395d89b41146102c357610116565b8063313ce567116100e9578063313ce567146101b75780633685d419146101d55780633fb5c1cb146101f157806342966c681461020d57806352390c021461022957610116565b806306fdde031461011b578063095ea7b31461013957806318160ddd1461016957806323b872dd14610187575b600080fd5b610123610383565b6040516101309190611cc4565b60405180910390f35b610153600480360381019061014e9190611d7f565b6103c0565b6040516101609190611dda565b60405180910390f35b6101716103de565b60405161017e9190611e04565b60405180910390f35b6101a1600480360381019061019c9190611e1f565b6103e8565b6040516101ae9190611dda565b60405180910390f35b6101bf6104fa565b6040516101cc9190611e8e565b60405180910390f35b6101ef60048036038101906101ea9190611ea9565b610503565b005b61020b60048036038101906102069190611ed6565b6105f3565b005b61022760048036038101906102229190611ed6565b610692565b005b610243600480360381019061023e9190611ea9565b6107a0565b005b61025f600480360381019061025a9190611ea9565b610890565b60405161026c9190611dda565b60405180910390f35b61028f600480360381019061028a9190611ea9565b6108b0565b60405161029c9190611e04565b60405180910390f35b6102ad6108f9565b6040516102ba9190611f12565b60405180910390f35b6102cb610922565b6040516102d89190611cc4565b60405180910390f35b6102fb60048036038101906102f69190611ed6565b61095f565b005b61031760048036038101906103129190611ed6565b6109fe565b005b610333600480360381019061032e9190611d7f565b610b0c565b6040516103409190611dda565b60405180910390f35b610351610b42565b005b61036d60048036038101906103689190611f2d565b610c5b565b60405161037a9190611e04565b60405180910390f35b60606040518060400160405280601281526020017f5452414e53464f524d45525320544f4b454e0000000000000000000000000000815250905090565b60006103d46103cd610ce2565b8484610cea565b6001905092915050565b6000600954905090565b60006103f5848484610eb5565b156104ef576000600560008673ffffffffffffffffffffffffffffffffffffffff1673ffffffffffffffffffffffffffffffffffffffff1681526020019081526020016000206000610445610ce2565b73ffffffffffffffffffffffffffffffffffffffff1673ffffffffffffffffffffffffffffffffffffffff168152602001908152602001600020549050828110156104c5576040517f08c379a00000000000000000000000000000000000000000000000000000000081526004016104bc90611fdf565b60405180910390fd5b6104d08585856110da565b6104ed856104dc610ce2565b85846104e8919061202e565b610cea565b505b600190509392505050565b60006009905090565b61050b610ce2565b73ffffffffffffffffffffffffffffffffffffffff1660008054906101000a900473ffffffffffffffffffffffffffffffffffffffff1673ffffffffffffffffffffffffffffffffffffffff1614610598576040517f08c379a000000000000000000000000000000000000000000000000000000000815260040161058f906120ae565b60405180910390fd5b6001600360008373ffffffffffffffffffffffffffffffffffffffff1673ffffffffffffffffffffffffffffffffffffffff16815260200190815260200160002060006101000a81548160ff02191690831515021790555050565b6105fb610ce2565b73ffffffffffffffffffffffffffffffffffffffff1660008054906101000a900473ffffffffffffffffffffffffffffffffffffffff1673ffffffffffffffffffffffffffffffffffffffff1614610688576040517f08c379a000000000000000000000000000000000000000000000000000000000815260040161067f906120ae565b60405180910390fd5b80600a8190555050565b61069a610ce2565b73ffffffffffffffffffffffffffffffffffffffff1660008054906101000a900473ffffffffffffffffffffffffffffffffffffffff1673ffffffffffffffffffffffffffffffffffffffff1614610727576040517f08c379a000000000000000000000000000000000000000000000000000000000815260040161071e906120ae565b60405180910390fd5b80600460006107346108f9565b73ffffffffffffffffffffffffffffffffffffffff1673ffffffffffffffffffffffffffffffffffffffff168152602001908152602001600020600082825461077d919061202e565b925050819055508060096000828254610796919061202e565b9250508190555050565b6107a8610ce2565b73ffffffffffffffffffffffffffffffffffffffff1660008054906101000a900473ffffffffffffffffffffffffffffffffffffffff1673ffffffffffffffffffffffffffffffffffffffff1614610835576040517f08c379a000000000000000000000000000000000000000000000000000000000815260040161082c906120ae565b60405180910390fd5b6000600360008373ffffffffffffffffffffffffffffffffffffffff1673ffffffffffffffffffffffffffffffffffffffff16815260200190815260200160002060006101000a81548160ff02191690831515021790555050565b60036020528060005260406000206000915054906101000a900460ff1681565b6000600460008373ffffffffffffffffffffffffffffffffffffffff1673ffffffffffffffffffffffffffffffffffffffff168152602001908152602001600020549050919050565b60008060009054906101000a900473ffffffffffffffffffffffffffffffffffffffff16905090565b60606040518060400160405280600381526020017f5446530000000000000000000000000000000000000000000000000000000000815250905090565b610967610ce2565b73ffffffffffffffffffffffffffffffffffffffff1660008054906101000a900473ffffffffffffffffffffffffffffffffffffffff1673ffffffffffffffffffffffffffffffffffffffff16146109f4576040517f08c379a00000000000000000000000000000000000000000000000000000000081526004016109eb906120ae565b60405180910390fd5b80600b8190555050565b610a06610ce2565b73ffffffffffffffffffffffffffffffffffffffff1660008054906101000a900473ffffffffffffffffffffffffffffffffffffffff1673ffffffffffffffffffffffffffffffffffffffff1614610a93576040517f08c379a0000000000000000000000000000000000000000000000000000000008152600401610a8a906120ae565b60405180910390fd5b8060046000610aa06108f9565b73ffffffffffffffffffffffffffffffffffffffff1673ffffffffffffffffffffffffffffffffffffffff1681526020019081526020016000206000828254610ae991906120ce565b925050819055508060096000828254610b0291906120ce565b9250508190555050565b6000610b20610b19610ce2565b8484610eb5565b15610b3857610b37610b30610ce2565b84846110da565b5b6001905092915050565b610b4a610ce2565b73ffffffffffffffffffffffffffffffffffffffff1660008054906101000a900473ffffffffffffffffffffffffffffffffffffffff1673ffffffffffffffffffffffffffffffffffffffff1614610bd7576040517f08c379a0000000000000000000000000000000000000000000000000000000008152600401610bce906120ae565b60405180910390fd5b600260009054906101000a900473ffffffffffffffffffffffffffffffffffffffff1673ffffffffffffffffffffffffffffffffffffffff1663fff6cae96040518163ffffffff1660e01b8152600401600060405180830381600087803b158015610c4157600080fd5b505af1158015610c55573d6000803e3d6000fd5b50505050565b6000600560008473ffffffffffffffffffffffffffffffffffffffff1673ffffffffffffffffffffffffffffffffffffffff16815260200190815260200160002060008373ffffffffffffffffffffffffffffffffffffffff1673ffffffffffffffffffffffffffffffffffffffff16815260200190815260200160002054905092915050565b600033905090565b600073ffffffffffffffffffffffffffffffffffffffff168373ffffffffffffffffffffffffffffffffffffffff161415610d5a576040517f08c379a0000000000000000000000000000000000000000000000000000000008152600401610d5190612196565b60405180910390fd5b600073ffffffffffffffffffffffffffffffffffffffff168273ffffffffffffffffffffffffffffffffffffffff161415610dca576040517f08c379a0000000000000000000000000000000000000000000000000000000008152600401610dc190612228565b60405180910390fd5b80600560008573ffffffffffffffffffffffffffffffffffffffff1673ffffffffffffffffffffffffffffffffffffffff16815260200190815260200160002060008473ffffffffffffffffffffffffffffffffffffffff1673ffffffffffffffffffffffffffffffffffffffff168152602001908152602001600020819055508173ffffffffffffffffffffffffffffffffffffffff168373ffffffffffffffffffffffffffffffffffffffff167f8c5be1e5ebec7d5bd14f71427d1e84f3dd0314c0f7b2291e5b200ac8c7c3b92583604051610ea89190611e04565b60405180910390a3505050565b6000600360008573ffffffffffffffffffffffffffffffffffffffff1673ffffffffffffffffffffffffffffffffffffffff16815260200190815260200160002060009054906101000a900460ff1680610f585750600360008473ffffffffffffffffffffffffffffffffffffffff1673ffffffffffffffffffffffffffffffffffffffff16815260200190815260200160002060009054906101000a900460ff165b15610f6657600190506110d3565b610f6f8461135d565b15610f7d57600190506110d3565b610f868361135d565b156110ce576000610f968361140f565b90506000600660008773ffffffffffffffffffffffffffffffffffffffff1673ffffffffffffffffffffffffffffffffffffffff1681526020019081526020016000205490506000600760008873ffffffffffffffffffffffffffffffffffffffff1673ffffffffffffffffffffffffffffffffffffffff1681526020019081526020016000205490506000600860008973ffffffffffffffffffffffffffffffffffffffff1673ffffffffffffffffffffffffffffffffffffffff1681526020019081526020016000205490506000868361107291906120ce565b84101590506000858361108591906120ce565b600a54101590506000600b548b73ffffffffffffffffffffffffffffffffffffffff1631101590508280156110b75750815b80156110c05750805b9750505050505050506110d3565b600190505b9392505050565b600073ffffffffffffffffffffffffffffffffffffffff168373ffffffffffffffffffffffffffffffffffffffff16141561114a576040517f08c379a0000000000000000000000000000000000000000000000000000000008152600401611141906122ba565b60405180910390fd5b600073ffffffffffffffffffffffffffffffffffffffff168273ffffffffffffffffffffffffffffffffffffffff1614156111ba576040517f08c379a00000000000000000000000000000000000000000000000000000000081526004016111b19061234c565b60405180910390fd5b6111c58383836117bc565b80600460008573ffffffffffffffffffffffffffffffffffffffff1673ffffffffffffffffffffffffffffffffffffffff168152602001908152602001600020541015611247576040517f08c379a000000000000000000000000000000000000000000000000000000000815260040161123e906123de565b60405180910390fd5b80600460008573ffffffffffffffffffffffffffffffffffffffff1673ffffffffffffffffffffffffffffffffffffffff1681526020019081526020016000206000828254611296919061202e565b9250508190555080600460008473ffffffffffffffffffffffffffffffffffffffff1673ffffffffffffffffffffffffffffffffffffffff16815260200190815260200160002060008282546112ec91906120ce565b925050819055508173ffffffffffffffffffffffffffffffffffffffff168373ffffffffffffffffffffffffffffffffffffffff167fddf252ad1be2c89b69c2b068fc378daa952ba7f163c4a11628f55a4df523b3ef836040516113509190611e04565b60405180910390a3505050565b6000600160009054906101000a900473ffffffffffffffffffffffffffffffffffffffff1673ffffffffffffffffffffffffffffffffffffffff168273ffffffffffffffffffffffffffffffffffffffff1614806114085750600260009054906101000a900473ffffffffffffffffffffffffffffffffffffffff1673ffffffffffffffffffffffffffffffffffffffff168273ffffffffffffffffffffffffffffffffffffffff16145b9050919050565b6000806000600260009054906101000a900473ffffffffffffffffffffffffffffffffffffffff1673ffffffffffffffffffffffffffffffffffffffff16630902f1ac6040518163ffffffff1660e01b815260040160606040518083038186803b15801561147c57600080fd5b505afa158015611490573d6000803e3d6000fd5b505050506040513d601f19601f820116820180604052508101906114b49190612480565b506dffffffffffffffffffffffffffff1691506dffffffffffffffffffffffffffff169150600160009054906101000a900473ffffffffffffffffffffffffffffffffffffffff1673ffffffffffffffffffffffffffffffffffffffff1663ad5c46486040518163ffffffff1660e01b815260040160206040518083038186803b15801561154157600080fd5b505afa158015611555573d6000803e3d6000fd5b505050506040513d601f19601f8201168201806040525081019061157991906124e8565b73ffffffffffffffffffffffffffffffffffffffff16600260009054906101000a900473ffffffffffffffffffffffffffffffffffffffff1673ffffffffffffffffffffffffffffffffffffffff16630dfe16816040518163ffffffff1660e01b815260040160206040518083038186803b1580156115f757600080fd5b505afa15801561160b573d6000803e3d6000fd5b505050506040513d601f19601f8201168201806040525081019061162f91906124e8565b73ffffffffffffffffffffffffffffffffffffffff16141561170357600160009054906101000a900473ffffffffffffffffffffffffffffffffffffffff1673ffffffffffffffffffffffffffffffffffffffff1663054d50d48583856040518463ffffffff1660e01b81526004016116aa93929190612515565b60206040518083038186803b1580156116c257600080fd5b505afa1580156116d6573d6000803e3d6000fd5b505050506040513d601f19601f820116820180604052508101906116fa9190612561565b925050506117b7565b600160009054906101000a900473ffffffffffffffffffffffffffffffffffffffff1673ffffffffffffffffffffffffffffffffffffffff1663054d50d48584846040518463ffffffff1660e01b815260040161176293929190612515565b60206040518083038186803b15801561177a57600080fd5b505afa15801561178e573d6000803e3d6000fd5b505050506040513d601f19601f820116820180604052508101906117b29190612561565b925050505b919050565b6117c4611b4a565b15611b4557600080600260009054906101000a900473ffffffffffffffffffffffffffffffffffffffff1673ffffffffffffffffffffffffffffffffffffffff16630902f1ac6040518163ffffffff1660e01b815260040160606040518083038186803b15801561183457600080fd5b505afa158015611848573d6000803e3d6000fd5b505050506040513d601f19601f8201168201806040525081019061186c9190612480565b506dffffffffffffffffffffffffffff1691506dffffffffffffffffffffffffffff169150600080600160009054906101000a900473ffffffffffffffffffffffffffffffffffffffff1673ffffffffffffffffffffffffffffffffffffffff1663ad5c46486040518163ffffffff1660e01b815260040160206040518083038186803b1580156118fc57600080fd5b505afa158015611910573d6000803e3d6000fd5b505050506040513d601f19601f8201168201806040525081019061193491906124e8565b73ffffffffffffffffffffffffffffffffffffffff16600260009054906101000a900473ffffffffffffffffffffffffffffffffffffffff1673ffffffffffffffffffffffffffffffffffffffff16630dfe16816040518163ffffffff1660e01b815260040160206040518083038186803b1580156119b257600080fd5b505afa1580156119c6573d6000803e3d6000fd5b505050506040513d601f19601f820116820180604052508101906119ea91906124e8565b73ffffffffffffffffffffffffffffffffffffffff161415611a1157839150829050611a18565b8291508390505b611a218761135d565b15611a7d5784600660008873ffffffffffffffffffffffffffffffffffffffff1673ffffffffffffffffffffffffffffffffffffffff1681526020019081526020016000206000828254611a7591906120ce565b925050819055505b611a868661135d565b15611b405784600760008973ffffffffffffffffffffffffffffffffffffffff1673ffffffffffffffffffffffffffffffffffffffff1681526020019081526020016000206000828254611ada91906120ce565b92505081905550611aea8561140f565b600860008973ffffffffffffffffffffffffffffffffffffffff1673ffffffffffffffffffffffffffffffffffffffff1681526020019081526020016000206000828254611b3891906120ce565b925050819055505b505050505b505050565b6000806000600260009054906101000a900473ffffffffffffffffffffffffffffffffffffffff1673ffffffffffffffffffffffffffffffffffffffff16630902f1ac6040518163ffffffff1660e01b815260040160606040518083038186803b158015611bb757600080fd5b505afa158015611bcb573d6000803e3d6000fd5b505050506040513d601f19601f82011682018060405250810190611bef9190612480565b506dffffffffffffffffffffffffffff1691506dffffffffffffffffffffffffffff169150600082118015611c245750600081115b9250505090565b600081519050919050565b600082825260208201905092915050565b60005b83811015611c65578082015181840152602081019050611c4a565b83811115611c74576000848401525b50505050565b6000601f19601f8301169050919050565b6000611c9682611c2b565b611ca08185611c36565b9350611cb0818560208601611c47565b611cb981611c7a565b840191505092915050565b60006020820190508181036000830152611cde8184611c8b565b905092915050565b600080fd5b600073ffffffffffffffffffffffffffffffffffffffff82169050919050565b6000611d1682611ceb565b9050919050565b611d2681611d0b565b8114611d3157600080fd5b50565b600081359050611d4381611d1d565b92915050565b6000819050919050565b611d5c81611d49565b8114611d6757600080fd5b50565b600081359050611d7981611d53565b92915050565b60008060408385031215611d9657611d95611ce6565b5b6000611da485828601611d34565b9250506020611db585828601611d6a565b9150509250929050565b60008115159050919050565b611dd481611dbf565b82525050565b6000602082019050611def6000830184611dcb565b92915050565b611dfe81611d49565b82525050565b6000602082019050611e196000830184611df5565b92915050565b600080600060608486031215611e3857611e37611ce6565b5b6000611e4686828701611d34565b9350506020611e5786828701611d34565b9250506040611e6886828701611d6a565b9150509250925092565b600060ff82169050919050565b611e8881611e72565b82525050565b6000602082019050611ea36000830184611e7f565b92915050565b600060208284031215611ebf57611ebe611ce6565b5b6000611ecd84828501611d34565b91505092915050565b600060208284031215611eec57611eeb611ce6565b5b6000611efa84828501611d6a565b91505092915050565b611f0c81611d0b565b82525050565b6000602082019050611f276000830184611f03565b92915050565b60008060408385031215611f4457611f43611ce6565b5b6000611f5285828601611d34565b9250506020611f6385828601611d34565b9150509250929050565b7f45524332303a207472616e7366657220616d6f756e742065786365656473206160008201527f6c6c6f77616e6365000000000000000000000000000000000000000000000000602082015250565b6000611fc9602883611c36565b9150611fd482611f6d565b604082019050919050565b60006020820190508181036000830152611ff881611fbc565b9050919050565b7f4e487b7100000000000000000000000000000000000000000000000000000000600052601160045260246000fd5b600061203982611d49565b915061204483611d49565b92508282101561205757612056611fff565b5b828203905092915050565b7f4f776e61626c653a2063616c6c6572206973206e6f7420746865206f776e6572600082015250565b6000612098602083611c36565b91506120a382612062565b602082019050919050565b600060208201905081810360008301526120c78161208b565b9050919050565b60006120d982611d49565b91506120e483611d49565b9250827fffffffffffffffffffffffffffffffffffffffffffffffffffffffffffffffff0382111561211957612118611fff565b5b828201905092915050565b7f45524332303a20617070726f76652066726f6d20746865207a65726f2061646460008201527f7265737300000000000000000000000000000000000000000000000000000000602082015250565b6000612180602483611c36565b915061218b82612124565b604082019050919050565b600060208201905081810360008301526121af81612173565b9050919050565b7f45524332303a20617070726f766520746f20746865207a65726f20616464726560008201527f7373000000000000000000000000000000000000000000000000000000000000602082015250565b6000612212602283611c36565b915061221d826121b6565b604082019050919050565b6000602082019050818103600083015261224181612205565b9050919050565b7f45524332303a207472616e736665722066726f6d20746865207a65726f20616460008201527f6472657373000000000000000000000000000000000000000000000000000000602082015250565b60006122a4602583611c36565b91506122af82612248565b604082019050919050565b600060208201905081810360008301526122d381612297565b9050919050565b7f45524332303a207472616e7366657220746f20746865207a65726f206164647260008201527f6573730000000000000000000000000000000000000000000000000000000000602082015250565b6000612336602383611c36565b9150612341826122da565b604082019050919050565b6000602082019050818103600083015261236581612329565b9050919050565b7f45524332303a207472616e7366657220616d6f756e742065786365656473206260008201527f616c616e63650000000000000000000000000000000000000000000000000000602082015250565b60006123c8602683611c36565b91506123d38261236c565b604082019050919050565b600060208201905081810360008301526123f7816123bb565b9050919050565b60006dffffffffffffffffffffffffffff82169050919050565b612421816123fe565b811461242c57600080fd5b50565b60008151905061243e81612418565b92915050565b600063ffffffff82169050919050565b61245d81612444565b811461246857600080fd5b50565b60008151905061247a81612454565b92915050565b60008060006060848603121561249957612498611ce6565b5b60006124a78682870161242f565b93505060206124b88682870161242f565b92505060406124c98682870161246b565b9150509250925092565b6000815190506124e281611d1d565b92915050565b6000602082840312156124fe576124fd611ce6565b5b600061250c848285016124d3565b91505092915050565b600060608201905061252a6000830186611df5565b6125376020830185611df5565b6125446040830184611df5565b949350505050565b60008151905061255b81611d53565b92915050565b60006020828403121561257757612576611ce6565b5b60006125858482850161254c565b9150509291505056fea26469706673582212202145dd8eb894068408038576ab28f7d7901aaf15df1818ac85031221900a7f0a64736f6c63430008090033",
  "linkReferences": {},
  "deployedLinkReferences": {}
}