{
  "_format": "hh-sol-artifact-1",
  "contractName": "MultiSigWallet",
  "sourceName": "contracts/01_signature_replay.sol",
  "abi": [
    {
      "inputs": [
        {
          "internalType": "address[2]",
          "name": "_owners",
          "type": "address[2]"
        }
      ],
      "stateMutability": "payable",
      "type": "constructor"
    },
    {
      "inputs": [],
      "name": "ECDSAInvalidSignature",
      "type": "error"
    },
    {
      "inputs": [
        {
          "internalType": "uint256",
          "name": "length",
          "type": "uint256"
        }
      ],
      "name": "ECDSAInvalidSignatureLength",
      "type": "error"
    },
    {
      "inputs": [
        {
          "internalType": "bytes32",
          "name": "s",
          "type": "bytes32"
        }
      ],
      "name": "ECDSAInvalidSignatureS",
      "type": "error"
    },
    {
      "inputs": [],
      "name": "deposit",
      "outputs": [],
      "stateMutability": "payable",
      "type": "function"
    },
    {
      "inputs": [
        {
          "internalType": "address",
          "name": "_to",
          "type": "address"
        },
        {
          "internalType": "uint256",
          "name": "_amount",
          "type": "uint256"
        }
      ],
      "name": "getTxHash",
      "outputs": [
        {
          "internalType": "bytes32",
          "name": "",
          "type": "bytes32"
        }
      ],
      "stateMutability": "pure",
      "type": "function"
    },
    {
      "inputs": [
        {
          "internalType": "uint256",
          "name": "",
          "type": "uint256"
        }
      ],
      "name": "owners",
      "outputs": [
        {
          "internalType": "address",
          "name": "",
          "type": "address"
        }
      ],
      "stateMutability": "view",
      "type": "function"
    },
    {
      "inputs": [
        {
          "internalType": "address",
          "name": "_to",
          "type": "address"
        },
        {
          "internalType": "uint256",
          "name": "_amount",
          "type": "uint256"
        },
        {
          "internalType": "bytes[2]",
          "name": "_sigs",
          "type": "bytes[2]"
        }
      ],
      "name": "transfer",
      "outputs": [],
      "stateMutability": "nonpayable",
      "type": "function"
    }
  ],
  "bytecode": "0x6080604052604051620010b3380380620010b38339818101604052810190620000299190620002bc565b8060009060026200003c92919062000044565b5050620002ee565b8260028101928215620000b3579160200282015b82811115620000b25782518260006101000a81548173ffffffffffffffffffffffffffffffffffffffff021916908373ffffffffffffffffffffffffffffffffffffffff1602179055509160200191906001019062000058565b5b509050620000c29190620000c6565b5090565b5b80821115620000e1576000816000905550600101620000c7565b5090565b6000604051905090565b600080fd5b600080fd5b6000601f19601f8301169050919050565b7f4e487b7100000000000000000000000000000000000000000000000000000000600052604160045260246000fd5b6200014482620000f9565b810181811067ffffffffffffffff821117156200016657620001656200010a565b5b80604052505050565b60006200017b620000e5565b905062000189828262000139565b919050565b600067ffffffffffffffff821115620001ac57620001ab6200010a565b5b602082029050919050565b600080fd5b600073ffffffffffffffffffffffffffffffffffffffff82169050919050565b6000620001e982620001bc565b9050919050565b620001fb81620001dc565b81146200020757600080fd5b50565b6000815190506200021b81620001f0565b92915050565b60006200023862000232846200018e565b6200016f565b90508060208402830185811115620002555762000254620001b7565b5b835b818110156200028257806200026d88826200020a565b84526020840193505060208101905062000257565b5050509392505050565b600082601f830112620002a457620002a3620000f4565b5b6002620002b384828562000221565b91505092915050565b600060408284031215620002d557620002d4620000ef565b5b6000620002e5848285016200028c565b91505092915050565b610db580620002fe6000396000f3fe60806040526004361061003f5760003560e01c8063025e7c27146100445780639a4b740b14610081578063d0e30db0146100be578063ffb485b8146100c8575b600080fd5b34801561005057600080fd5b5061006b600480360381019061006691906106a9565b6100f1565b6040516100789190610717565b60405180910390f35b34801561008d57600080fd5b506100a860048036038101906100a3919061075e565b610127565b6040516100b591906107b7565b60405180910390f35b6100c661015a565b005b3480156100d457600080fd5b506100ef60048036038101906100ea91906109ec565b61015c565b005b6000816002811061010157600080fd5b016000915054906101000a900473ffffffffffffffffffffffffffffffffffffffff1681565b6000828260405160200161013c929190610ac4565b60405160208183030381529060405280519060200120905092915050565b565b60006101688484610127565b90506101748282610266565b6101b3576040517f08c379a00000000000000000000000000000000000000000000000000000000081526004016101aa90610b4d565b60405180910390fd5b60008473ffffffffffffffffffffffffffffffffffffffff16846040516101d990610b9e565b60006040518083038185875af1925050503d8060008114610216576040519150601f19603f3d011682016040523d82523d6000602084013e61021b565b606091505b505090508061025f576040517f08c379a000000000000000000000000000000000000000000000000000000000815260040161025690610bff565b60405180910390fd5b5050505050565b60008061027283610349565b905060005b600281101561033c5760006102ac86836002811061029857610297610c1f565b5b60200201518461037f90919063ffffffff16565b905060008083600281106102c3576102c2610c1f565b5b0160009054906101000a900473ffffffffffffffffffffffffffffffffffffffff1673ffffffffffffffffffffffffffffffffffffffff168273ffffffffffffffffffffffffffffffffffffffff1614905080610327576000945050505050610343565b5050808061033490610c7d565b915050610277565b5060019150505b92915050565b60007f19457468657265756d205369676e6564204d6573736167653a0a33320000000060005281601c52603c6000209050919050565b60008060008061038f86866103ab565b92509250925061039f8282610407565b82935050505092915050565b600080600060418451036103f05760008060006020870151925060408701519150606087015160001a90506103e28882858561056b565b955095509550505050610400565b60006002855160001b9250925092505b9250925092565b6000600381111561041b5761041a610cc5565b5b82600381111561042e5761042d610cc5565b5b0315610567576001600381111561044857610447610cc5565b5b82600381111561045b5761045a610cc5565b5b03610492576040517ff645eedf00000000000000000000000000000000000000000000000000000000815260040160405180910390fd5b600260038111156104a6576104a5610cc5565b5b8260038111156104b9576104b8610cc5565b5b036104fe578060001c6040517ffce698f70000000000000000000000000000000000000000000000000000000081526004016104f59190610d03565b60405180910390fd5b60038081111561051157610510610cc5565b5b82600381111561052457610523610cc5565b5b0361056657806040517fd78bce0c00000000000000000000000000000000000000000000000000000000815260040161055d91906107b7565b60405180910390fd5b5b5050565b60008060007f7fffffffffffffffffffffffffffffff5d576e7357a4501ddfe92f46681b20a08460001c11156105ab576000600385925092509250610655565b6000600188888888604051600081526020016040526040516105d09493929190610d3a565b6020604051602081039080840390855afa1580156105f2573d6000803e3d6000fd5b505050602060405103519050600073ffffffffffffffffffffffffffffffffffffffff168173ffffffffffffffffffffffffffffffffffffffff160361064657600060016000801b93509350935050610655565b8060008060001b935093509350505b9450945094915050565b6000604051905090565b600080fd5b600080fd5b6000819050919050565b61068681610673565b811461069157600080fd5b50565b6000813590506106a38161067d565b92915050565b6000602082840312156106bf576106be610669565b5b60006106cd84828501610694565b91505092915050565b600073ffffffffffffffffffffffffffffffffffffffff82169050919050565b6000610701826106d6565b9050919050565b610711816106f6565b82525050565b600060208201905061072c6000830184610708565b92915050565b61073b816106f6565b811461074657600080fd5b50565b60008135905061075881610732565b92915050565b6000806040838503121561077557610774610669565b5b600061078385828601610749565b925050602061079485828601610694565b9150509250929050565b6000819050919050565b6107b18161079e565b82525050565b60006020820190506107cc60008301846107a8565b92915050565b600080fd5b6000601f19601f8301169050919050565b7f4e487b7100000000000000000000000000000000000000000000000000000000600052604160045260246000fd5b610820826107d7565b810181811067ffffffffffffffff8211171561083f5761083e6107e8565b5b80604052505050565b600061085261065f565b905061085e8282610817565b919050565b600067ffffffffffffffff82111561087e5761087d6107e8565b5b602082029050919050565b600080fd5b600080fd5b600067ffffffffffffffff8211156108ae576108ad6107e8565b5b6108b7826107d7565b9050602081019050919050565b82818337600083830152505050565b60006108e66108e184610893565b610848565b9050828152602081018484840111156109025761090161088e565b5b61090d8482856108c4565b509392505050565b600082601f83011261092a576109296107d2565b5b813561093a8482602086016108d3565b91505092915050565b600061095661095184610863565b610848565b905080602084028301858111156109705761096f610889565b5b835b818110156109b757803567ffffffffffffffff811115610995576109946107d2565b5b8086016109a28982610915565b85526020850194505050602081019050610972565b5050509392505050565b600082601f8301126109d6576109d56107d2565b5b60026109e3848285610943565b91505092915050565b600080600060608486031215610a0557610a04610669565b5b6000610a1386828701610749565b9350506020610a2486828701610694565b925050604084013567ffffffffffffffff811115610a4557610a4461066e565b5b610a51868287016109c1565b9150509250925092565b60008160601b9050919050565b6000610a7382610a5b565b9050919050565b6000610a8582610a68565b9050919050565b610a9d610a98826106f6565b610a7a565b82525050565b6000819050919050565b610abe610ab982610673565b610aa3565b82525050565b6000610ad08285610a8c565b601482019150610ae08284610aad565b6020820191508190509392505050565b600082825260208201905092915050565b7f696e76616c696420736967000000000000000000000000000000000000000000600082015250565b6000610b37600b83610af0565b9150610b4282610b01565b602082019050919050565b60006020820190508181036000830152610b6681610b2a565b9050919050565b600081905092915050565b50565b6000610b88600083610b6d565b9150610b9382610b78565b600082019050919050565b6000610ba982610b7b565b9150819050919050565b7f4661696c656420746f2073656e64204574686572000000000000000000000000600082015250565b6000610be9601483610af0565b9150610bf482610bb3565b602082019050919050565b60006020820190508181036000830152610c1881610bdc565b9050919050565b7f4e487b7100000000000000000000000000000000000000000000000000000000600052603260045260246000fd5b7f4e487b7100000000000000000000000000000000000000000000000000000000600052601160045260246000fd5b6000610c8882610673565b91507fffffffffffffffffffffffffffffffffffffffffffffffffffffffffffffffff8203610cba57610cb9610c4e565b5b600182019050919050565b7f4e487b7100000000000000000000000000000000000000000000000000000000600052602160045260246000fd5b610cfd81610673565b82525050565b6000602082019050610d186000830184610cf4565b92915050565b600060ff82169050919050565b610d3481610d1e565b82525050565b6000608082019050610d4f60008301876107a8565b610d5c6020830186610d2b565b610d6960408301856107a8565b610d7660608301846107a8565b9594505050505056fea264697066735822122084664d27ec80ef41c11204160576bc744995f73461e039bd3e39474077bc638064736f6c63430008140033",
  "linkReferences": {},
  "deployedLinkReferences": {}
}