{
  "_format": "hh-sol-artifact-1",
  "contractName": "Reentrance",
  "sourceName": "contracts/03_reentrancy_fixed_1.sol",
  "abi": [
    {
      "inputs": [],
      "name": "addToBalance",
      "outputs": [],
      "stateMutability": "payable",
      "type": "function"
    },
    {
      "inputs": [
        {
          "internalType": "address",
          "name": "u",
          "type": "address"
        }
      ],
      "name": "getBalance",
      "outputs": [
        {
          "internalType": "uint256",
          "name": "",
          "type": "uint256"
        }
      ],
      "stateMutability": "view",
      "type": "function"
    },
    {
      "inputs": [],
      "name": "withdrawBalance",
      "outputs": [],
      "stateMutability": "nonpayable",
      "type": "function"
    }
  ],
  "bytecode": "0x608060405234801561001057600080fd5b5061048d806100206000396000f3fe6080604052600436106100345760003560e01c80635fd8c71014610039578063c0e317fb14610050578063f8b2cb4f1461005a575b600080fd5b34801561004557600080fd5b5061004e610097565b005b6100586101ce565b005b34801561006657600080fd5b50610081600480360381019061007c91906102d0565b610225565b60405161008e9190610316565b60405180910390f35b60008060003373ffffffffffffffffffffffffffffffffffffffff1673ffffffffffffffffffffffffffffffffffffffff16815260200190815260200160002054905060008060003373ffffffffffffffffffffffffffffffffffffffff1673ffffffffffffffffffffffffffffffffffffffff1681526020019081526020016000208190555060003373ffffffffffffffffffffffffffffffffffffffff168260405161014490610362565b60006040518083038185875af1925050503d8060008114610181576040519150601f19603f3d011682016040523d82523d6000602084013e610186565b606091505b50509050806101ca576040517f08c379a00000000000000000000000000000000000000000000000000000000081526004016101c1906103d4565b60405180910390fd5b5050565b346000803373ffffffffffffffffffffffffffffffffffffffff1673ffffffffffffffffffffffffffffffffffffffff168152602001908152602001600020600082825461021c9190610423565b92505081905550565b60008060008373ffffffffffffffffffffffffffffffffffffffff1673ffffffffffffffffffffffffffffffffffffffff168152602001908152602001600020549050919050565b600080fd5b600073ffffffffffffffffffffffffffffffffffffffff82169050919050565b600061029d82610272565b9050919050565b6102ad81610292565b81146102b857600080fd5b50565b6000813590506102ca816102a4565b92915050565b6000602082840312156102e6576102e561026d565b5b60006102f4848285016102bb565b91505092915050565b6000819050919050565b610310816102fd565b82525050565b600060208201905061032b6000830184610307565b92915050565b600081905092915050565b50565b600061034c600083610331565b91506103578261033c565b600082019050919050565b600061036d8261033f565b9150819050919050565b600082825260208201905092915050565b7f5472616e73666572206661696c65642e00000000000000000000000000000000600082015250565b60006103be601083610377565b91506103c982610388565b602082019050919050565b600060208201905081810360008301526103ed816103b1565b9050919050565b7f4e487b7100000000000000000000000000000000000000000000000000000000600052601160045260246000fd5b600061042e826102fd565b9150610439836102fd565b9250828201905080821115610451576104506103f4565b5b9291505056fea26469706673582212203285b8679a67891e207e96b0e3bc92aa09cf26d89186467c03a48160b81734f464736f6c63430008140033",
  "linkReferences": {},
  "deployedLinkReferences": {}
}