{
  "_format": "hh-sol-artifact-1",
  "contractName": "MidasEmissions",
  "sourceName": "contracts/07_math_error_farmingContract.sol",
  "abi": [
    {
      "inputs": [
        {
          "internalType": "uint256",
          "name": "_startTime",
          "type": "uint256"
        },
        {
          "internalType": "address",
          "name": "midasAddress",
          "type": "address"
        },
        {
          "internalType": "address",
          "name": "shrapAddress",
          "type": "address"
        },
        {
          "internalType": "address",
          "name": "bombingRangeAddress",
          "type": "address"
        }
      ],
      "stateMutability": "nonpayable",
      "type": "constructor"
    },
    {
      "anonymous": false,
      "inputs": [
        {
          "indexed": true,
          "internalType": "address",
          "name": "user",
          "type": "address"
        },
        {
          "indexed": true,
          "internalType": "uint256",
          "name": "pid",
          "type": "uint256"
        },
        {
          "indexed": false,
          "internalType": "uint256",
          "name": "amount",
          "type": "uint256"
        }
      ],
      "name": "Deposit",
      "type": "event"
    },
    {
      "anonymous": false,
      "inputs": [
        {
          "indexed": true,
          "internalType": "address",
          "name": "user",
          "type": "address"
        },
        {
          "indexed": true,
          "internalType": "uint256",
          "name": "pid",
          "type": "uint256"
        },
        {
          "indexed": false,
          "internalType": "uint256",
          "name": "amount",
          "type": "uint256"
        }
      ],
      "name": "EmergencyWithdraw",
      "type": "event"
    },
    {
      "anonymous": false,
      "inputs": [
        {
          "indexed": true,
          "internalType": "address",
          "name": "previousOwner",
          "type": "address"
        },
        {
          "indexed": true,
          "internalType": "address",
          "name": "newOwner",
          "type": "address"
        }
      ],
      "name": "OwnershipTransferred",
      "type": "event"
    },
    {
      "anonymous": false,
      "inputs": [
        {
          "indexed": true,
          "internalType": "address",
          "name": "user",
          "type": "address"
        },
        {
          "indexed": true,
          "internalType": "uint256",
          "name": "pid",
          "type": "uint256"
        },
        {
          "indexed": false,
          "internalType": "uint256",
          "name": "amount",
          "type": "uint256"
        }
      ],
      "name": "Withdraw",
      "type": "event"
    },
    {
      "inputs": [],
      "name": "MIDAS",
      "outputs": [
        {
          "internalType": "contract IMidasToken",
          "name": "",
          "type": "address"
        }
      ],
      "stateMutability": "view",
      "type": "function"
    },
    {
      "inputs": [],
      "name": "SHRAP",
      "outputs": [
        {
          "internalType": "contract IERC20",
          "name": "",
          "type": "address"
        }
      ],
      "stateMutability": "view",
      "type": "function"
    },
    {
      "inputs": [],
      "name": "accFarmRewards",
      "outputs": [
        {
          "internalType": "uint256",
          "name": "",
          "type": "uint256"
        }
      ],
      "stateMutability": "view",
      "type": "function"
    },
    {
      "inputs": [
        {
          "internalType": "uint256",
          "name": "allocPoint",
          "type": "uint256"
        },
        {
          "internalType": "contract IERC20",
          "name": "lpToken",
          "type": "address"
        }
      ],
      "name": "addPool",
      "outputs": [],
      "stateMutability": "nonpayable",
      "type": "function"
    },
    {
      "inputs": [],
      "name": "bombingRange",
      "outputs": [
        {
          "internalType": "contract IBombingRange",
          "name": "",
          "type": "address"
        }
      ],
      "stateMutability": "view",
      "type": "function"
    },
    {
      "inputs": [],
      "name": "burnAddress",
      "outputs": [
        {
          "internalType": "address",
          "name": "",
          "type": "address"
        }
      ],
      "stateMutability": "view",
      "type": "function"
    },
    {
      "inputs": [],
      "name": "currentFarmRewards",
      "outputs": [
        {
          "internalType": "uint256",
          "name": "",
          "type": "uint256"
        }
      ],
      "stateMutability": "view",
      "type": "function"
    },
    {
      "inputs": [
        {
          "internalType": "uint256",
          "name": "pid",
          "type": "uint256"
        },
        {
          "internalType": "uint256",
          "name": "amount",
          "type": "uint256"
        }
      ],
      "name": "deposit",
      "outputs": [],
      "stateMutability": "nonpayable",
      "type": "function"
    },
    {
      "inputs": [
        {
          "internalType": "uint256",
          "name": "pid",
          "type": "uint256"
        }
      ],
      "name": "disableShrapPool",
      "outputs": [],
      "stateMutability": "nonpayable",
      "type": "function"
    },
    {
      "inputs": [
        {
          "internalType": "uint256",
          "name": "_pid",
          "type": "uint256"
        }
      ],
      "name": "emergencyWithdraw",
      "outputs": [],
      "stateMutability": "nonpayable",
      "type": "function"
    },
    {
      "inputs": [],
      "name": "lastMint",
      "outputs": [
        {
          "internalType": "uint256",
          "name": "",
          "type": "uint256"
        }
      ],
      "stateMutability": "view",
      "type": "function"
    },
    {
      "inputs": [],
      "name": "massUpdatePools",
      "outputs": [],
      "stateMutability": "nonpayable",
      "type": "function"
    },
    {
      "inputs": [],
      "name": "maxAllocPoint",
      "outputs": [
        {
          "internalType": "uint256",
          "name": "",
          "type": "uint256"
        }
      ],
      "stateMutability": "view",
      "type": "function"
    },
    {
      "inputs": [],
      "name": "maxMidasPerSecond",
      "outputs": [
        {
          "internalType": "uint256",
          "name": "",
          "type": "uint256"
        }
      ],
      "stateMutability": "view",
      "type": "function"
    },
    {
      "inputs": [],
      "name": "midasEmissionsReceiver",
      "outputs": [
        {
          "internalType": "address",
          "name": "",
          "type": "address"
        }
      ],
      "stateMutability": "view",
      "type": "function"
    },
    {
      "inputs": [],
      "name": "midasForFarm",
      "outputs": [
        {
          "internalType": "uint256",
          "name": "",
          "type": "uint256"
        }
      ],
      "stateMutability": "view",
      "type": "function"
    },
    {
      "inputs": [],
      "name": "midasForXMidas",
      "outputs": [
        {
          "internalType": "uint256",
          "name": "",
          "type": "uint256"
        }
      ],
      "stateMutability": "view",
      "type": "function"
    },
    {
      "inputs": [],
      "name": "midasPerSecond",
      "outputs": [
        {
          "internalType": "uint256",
          "name": "",
          "type": "uint256"
        }
      ],
      "stateMutability": "view",
      "type": "function"
    },
    {
      "inputs": [],
      "name": "owner",
      "outputs": [
        {
          "internalType": "address",
          "name": "",
          "type": "address"
        }
      ],
      "stateMutability": "view",
      "type": "function"
    },
    {
      "inputs": [
        {
          "internalType": "uint256",
          "name": "pid",
          "type": "uint256"
        },
        {
          "internalType": "address",
          "name": "_user",
          "type": "address"
        }
      ],
      "name": "pendingRewards",
      "outputs": [
        {
          "internalType": "uint256",
          "name": "pendingMidas",
          "type": "uint256"
        },
        {
          "internalType": "uint256",
          "name": "pendingShrap",
          "type": "uint256"
        }
      ],
      "stateMutability": "view",
      "type": "function"
    },
    {
      "inputs": [
        {
          "internalType": "uint256",
          "name": "",
          "type": "uint256"
        }
      ],
      "name": "poolInfo",
      "outputs": [
        {
          "internalType": "contract IERC20",
          "name": "lpToken",
          "type": "address"
        },
        {
          "internalType": "uint256",
          "name": "allocPoint",
          "type": "uint256"
        },
        {
          "internalType": "uint256",
          "name": "accMidasPerShare",
          "type": "uint256"
        },
        {
          "internalType": "uint256",
          "name": "midasRewarded",
          "type": "uint256"
        },
        {
          "internalType": "uint256",
          "name": "shrapPoolId",
          "type": "uint256"
        },
        {
          "internalType": "bool",
          "name": "shrapPoolEnabled",
          "type": "bool"
        },
        {
          "internalType": "uint256",
          "name": "accShrapPerShare",
          "type": "uint256"
        },
        {
          "internalType": "contract IMidasShrapDummyToken",
          "name": "shrapDummyToken",
          "type": "address"
        }
      ],
      "stateMutability": "view",
      "type": "function"
    },
    {
      "inputs": [],
      "name": "poolLength",
      "outputs": [
        {
          "internalType": "uint256",
          "name": "",
          "type": "uint256"
        }
      ],
      "stateMutability": "view",
      "type": "function"
    },
    {
      "inputs": [],
      "name": "renounceOwnership",
      "outputs": [],
      "stateMutability": "nonpayable",
      "type": "function"
    },
    {
      "inputs": [
        {
          "internalType": "address",
          "name": "_midasEmissionsReceiver",
          "type": "address"
        }
      ],
      "name": "setMidasEmissionsReceiver",
      "outputs": [],
      "stateMutability": "nonpayable",
      "type": "function"
    },
    {
      "inputs": [
        {
          "internalType": "uint256",
          "name": "_midasForFarm",
          "type": "uint256"
        }
      ],
      "name": "setMidasForFarm",
      "outputs": [],
      "stateMutability": "nonpayable",
      "type": "function"
    },
    {
      "inputs": [
        {
          "internalType": "uint256",
          "name": "_midasForXMidas",
          "type": "uint256"
        }
      ],
      "name": "setMidasForXMidas",
      "outputs": [],
      "stateMutability": "nonpayable",
      "type": "function"
    },
    {
      "inputs": [
        {
          "internalType": "uint256",
          "name": "_midasPerSecond",
          "type": "uint256"
        }
      ],
      "name": "setMidasPerSecond",
      "outputs": [],
      "stateMutability": "nonpayable",
      "type": "function"
    },
    {
      "inputs": [
        {
          "internalType": "uint256",
          "name": "pid",
          "type": "uint256"
        },
        {
          "internalType": "uint256",
          "name": "allocPoint",
          "type": "uint256"
        }
      ],
      "name": "setPoolAllocPoint",
      "outputs": [],
      "stateMutability": "nonpayable",
      "type": "function"
    },
    {
      "inputs": [
        {
          "internalType": "uint256",
          "name": "pid",
          "type": "uint256"
        },
        {
          "internalType": "uint256",
          "name": "shrapPid",
          "type": "uint256"
        }
      ],
      "name": "setShrapPoolIdMap",
      "outputs": [],
      "stateMutability": "nonpayable",
      "type": "function"
    },
    {
      "inputs": [],
      "name": "startTime",
      "outputs": [
        {
          "internalType": "uint256",
          "name": "",
          "type": "uint256"
        }
      ],
      "stateMutability": "view",
      "type": "function"
    },
    {
      "inputs": [],
      "name": "totalAllocPoint",
      "outputs": [
        {
          "internalType": "uint256",
          "name": "",
          "type": "uint256"
        }
      ],
      "stateMutability": "view",
      "type": "function"
    },
    {
      "inputs": [
        {
          "internalType": "address",
          "name": "newOwner",
          "type": "address"
        }
      ],
      "name": "transferOwnership",
      "outputs": [],
      "stateMutability": "nonpayable",
      "type": "function"
    },
    {
      "inputs": [],
      "name": "updateMint",
      "outputs": [],
      "stateMutability": "nonpayable",
      "type": "function"
    },
    {
      "inputs": [
        {
          "internalType": "uint256",
          "name": "pid",
          "type": "uint256"
        }
      ],
      "name": "updatePool",
      "outputs": [],
      "stateMutability": "nonpayable",
      "type": "function"
    },
    {
      "inputs": [
        {
          "internalType": "uint256",
          "name": "",
          "type": "uint256"
        },
        {
          "internalType": "address",
          "name": "",
          "type": "address"
        }
      ],
      "name": "userInfo",
      "outputs": [
        {
          "internalType": "uint256",
          "name": "amount",
          "type": "uint256"
        },
        {
          "internalType": "uint256",
          "name": "rewardDebt",
          "type": "uint256"
        },
        {
          "internalType": "uint256",
          "name": "shrapRewardDebt",
          "type": "uint256"
        }
      ],
      "stateMutability": "view",
      "type": "function"
    },
    {
      "inputs": [
        {
          "internalType": "uint256",
          "name": "pid",
          "type": "uint256"
        },
        {
          "internalType": "uint256",
          "name": "amount",
          "type": "uint256"
        }
      ],
      "name": "withdraw",
      "outputs": [],
      "stateMutability": "nonpayable",
      "type": "function"
    },
    {
      "inputs": [],
      "name": "xMidasAddress",
      "outputs": [
        {
          "internalType": "address",
          "name": "",
          "type": "address"
        }
      ],
      "stateMutability": "view",
      "type": "function"
    }
  ],
  "bytecode": "0x60e060405273ba8a8f39b2315d4bc725c026ce3898c2c7e74f57600260006101000a81548173ffffffffffffffffffffffffffffffffffffffff021916908373ffffffffffffffffffffffffffffffffffffffff1602179055506000600360006101000a81548173ffffffffffffffffffffffffffffffffffffffff021916908373ffffffffffffffffffffffffffffffffffffffff16021790555066456b64e37480806004556101f46005556000600655348015620000be57600080fd5b5060405162006b4b38038062006b4b8339818101604052810190620000e4919062000443565b62000104620000f8620002bf60201b60201c565b620002c760201b60201c565b62000115836200038b60201b60201c565b62000157576040517f08c379a00000000000000000000000000000000000000000000000000000000081526004016200014e9062000516565b60405180910390fd5b62000168826200038b60201b60201c565b620001aa576040517f08c379a0000000000000000000000000000000000000000000000000000000008152600401620001a19062000588565b60405180910390fd5b620001bb816200038b60201b60201c565b620001fd576040517f08c379a0000000000000000000000000000000000000000000000000000000008152600401620001f490620005fa565b60405180910390fd5b8360c08181525050836007819055508273ffffffffffffffffffffffffffffffffffffffff1660808173ffffffffffffffffffffffffffffffffffffffff16815250508173ffffffffffffffffffffffffffffffffffffffff1660a08173ffffffffffffffffffffffffffffffffffffffff168152505080600160006101000a81548173ffffffffffffffffffffffffffffffffffffffff021916908373ffffffffffffffffffffffffffffffffffffffff160217905550505050506200061c565b600033905090565b60008060009054906101000a900473ffffffffffffffffffffffffffffffffffffffff169050816000806101000a81548173ffffffffffffffffffffffffffffffffffffffff021916908373ffffffffffffffffffffffffffffffffffffffff1602179055508173ffffffffffffffffffffffffffffffffffffffff168173ffffffffffffffffffffffffffffffffffffffff167f8be0079c531659141344cd1fd0a4f28419497f9722a3daafe3b4186f6b6457e060405160405180910390a35050565b600080823b905060008111915050919050565b600080fd5b6000819050919050565b620003b881620003a3565b8114620003c457600080fd5b50565b600081519050620003d881620003ad565b92915050565b600073ffffffffffffffffffffffffffffffffffffffff82169050919050565b60006200040b82620003de565b9050919050565b6200041d81620003fe565b81146200042957600080fd5b50565b6000815190506200043d8162000412565b92915050565b6000806000806080858703121562000460576200045f6200039e565b5b60006200047087828801620003c7565b945050602062000483878288016200042c565b935050604062000496878288016200042c565b9250506060620004a9878288016200042c565b91505092959194509250565b600082825260208201905092915050565b7f4d69646173206973206e6f74206120636f6e7472616374000000000000000000600082015250565b6000620004fe601783620004b5565b91506200050b82620004c6565b602082019050919050565b600060208201905081810360008301526200053181620004ef565b9050919050565b7f53687261706e656c206973206e6f74206120636f6e7472616374000000000000600082015250565b600062000570601a83620004b5565b91506200057d8262000538565b602082019050919050565b60006020820190508181036000830152620005a38162000561565b9050919050565b7f426f6d62696e6752616e6765206973206e6f74206120636f6e74726163740000600082015250565b6000620005e2601e83620004b5565b9150620005ef82620005aa565b602082019050919050565b600060208201905081810360008301526200061581620005d3565b9050919050565b60805160a05160c051616481620006ca6000396000818161139c015281816130b1015281816130d90152613104015260008181611a480152818161297a01528181612a2e01528181612ba601528181612ce40152612dd2015260008181611371015281816113cd01528181611463015281816115dd015281816117650152818161181901528181611b5201528181611be8015281816128b2015281816131f6015261325101526164816000f3fe60806040523480156200001157600080fd5b50600436106200025c5760003560e01c80637b84a9ee116200014d578063c87a492511620000c9578063e2bbb1581162000087578063e2bbb1581462000691578063e53f735314620006b1578063ed4fd88614620006d3578063f2d9b8f814620006f3578063f2fde38b1462000715576200025c565b8063c87a492514620005d8578063d18df53c14620005fa578063d23d98921462000631578063d94006e01462000651578063dc628aa41462000671576200025c565b8063a1252d3f1162000117578063a1252d3f1462000530578063aeb35bec1462000552578063b9ca76701462000574578063c268be0b1462000596578063c7c1721914620005b6576200025c565b80637b84a9ee14620004a85780638da5cb5b14620004b45780639131822614620004d657806393f1a40b14620004f8576200025c565b80635312ea8e11620001dd57806370d5ae0511620001a757806370d5ae051462000414578063715018a61462000436578063718eb635146200044257806376816091146200046457806378e979251462000486576200025c565b80635312ea8e14620003a45780635627231514620003c4578063586fc5b514620003e6578063630b5ba11462000408576200025c565b806333ba8882116200022b57806333ba888214620003045780633e1c38191462000324578063441a3e7014620003445780634c034ee2146200036457806351eb05a61462000384576200025c565b8063055c5ae71462000261578063081e3eda14620002835780631526fe2714620002a557806317caf6f114620002e2575b600080fd5b6200026b62000735565b6040516200027a919062003724565b60405180910390f35b6200028d6200073b565b6040516200029c919062003724565b60405180910390f35b620002c36004803603810190620002bd919062003777565b62000748565b604051620002d998979695949392919062003876565b60405180910390f35b620002ec620007ee565b604051620002fb919062003724565b60405180910390f35b6200032260048036038101906200031c91906200395d565b620007f4565b005b6200034260048036038101906200033c9190620039d5565b62000a9b565b005b6200036260048036038101906200035c919062003a07565b62000b62565b005b6200038260048036038101906200037c919062003a07565b62000e4d565b005b620003a260048036038101906200039c919062003777565b620010f9565b005b620003c26004803603810190620003bc919062003777565b62001113565b005b620003ce62001255565b604051620003dd919062003a73565b60405180910390f35b620003f06200127b565b604051620003ff919062003724565b60405180910390f35b6200041262001281565b005b6200041e620012d8565b6040516200042d919062003aa1565b60405180910390f35b62000440620012de565b005b6200044c6200136f565b6040516200045b919062003ae3565b60405180910390f35b6200046e62001393565b6040516200047d919062003724565b60405180910390f35b620004906200139a565b6040516200049f919062003724565b60405180910390f35b620004b2620013be565b005b620004be62001901565b604051620004cd919062003aa1565b60405180910390f35b620004e06200192a565b604051620004ef919062003724565b60405180910390f35b62000516600480360381019062000510919062003b00565b62001936565b604051620005279392919062003b47565b60405180910390f35b6200053a6200196d565b60405162000549919062003724565b60405180910390f35b6200055c62001973565b6040516200056b919062003724565b60405180910390f35b6200057e62001979565b6040516200058d919062003724565b60405180910390f35b620005b46004803603810190620005ae919062003777565b6200197f565b005b620005c062001a46565b604051620005cf919062003b84565b60405180910390f35b620005e262001a6a565b604051620005f1919062003724565b60405180910390f35b62000618600480360381019062000612919062003b00565b62001a70565b6040516200062892919062003ba1565b60405180910390f35b6200064f600480360381019062000649919062003777565b62001fd8565b005b6200066f600480360381019062000669919062003777565b620020bc565b005b6200068f600480360381019062000689919062003a07565b62002153565b005b620006af6004803603810190620006a9919062003a07565b620022b3565b005b620006bb62002556565b604051620006ca919062003aa1565b60405180910390f35b620006f16004803603810190620006eb919062003777565b6200257c565b005b620006fd62002613565b6040516200070c919062003aa1565b60405180910390f35b6200073360048036038101906200072d9190620039d5565b62002639565b005b60085481565b6000600a80549050905090565b600a81815481106200075957600080fd5b90600052602060002090600802016000915090508060000160009054906101000a900473ffffffffffffffffffffffffffffffffffffffff16908060010154908060020154908060030154908060040154908060050160009054906101000a900460ff16908060060154908060070160009054906101000a900473ffffffffffffffffffffffffffffffffffffffff16905088565b600c5481565b620007fe6200273c565b73ffffffffffffffffffffffffffffffffffffffff166200081e62001901565b73ffffffffffffffffffffffffffffffffffffffff161462000877576040517f08c379a00000000000000000000000000000000000000000000000000000000081526004016200086e9062003c2f565b60405180910390fd5b620186a0821115620008c0576040517f08c379a0000000000000000000000000000000000000000000000000000000008152600401620008b79062003ca1565b60405180910390fd5b620008cb8162002744565b620008d562001281565b620008ec82600c546200283690919063ffffffff16565b600c81905550600a6040518061010001604052808373ffffffffffffffffffffffffffffffffffffffff168152602001848152602001600081526020016000815260200160008152602001600015158152602001600081526020016040516200095590620036fb565b604051809103906000f08015801562000972573d6000803e3d6000fd5b5073ffffffffffffffffffffffffffffffffffffffff16815250908060018154018082558091505060019003906000526020600020906008020160009091909190915060008201518160000160006101000a81548173ffffffffffffffffffffffffffffffffffffffff021916908373ffffffffffffffffffffffffffffffffffffffff1602179055506020820151816001015560408201518160020155606082015181600301556080820151816004015560a08201518160050160006101000a81548160ff02191690831515021790555060c0820151816006015560e08201518160070160006101000a81548173ffffffffffffffffffffffffffffffffffffffff021916908373ffffffffffffffffffffffffffffffffffffffff16021790555050505050565b62000aa56200273c565b73ffffffffffffffffffffffffffffffffffffffff1662000ac562001901565b73ffffffffffffffffffffffffffffffffffffffff161462000b1e576040517f08c379a000000000000000000000000000000000000000000000000000000000815260040162000b159062003c2f565b60405180910390fd5b80600260006101000a81548173ffffffffffffffffffffffffffffffffffffffff021916908373ffffffffffffffffffffffffffffffffffffffff16021790555050565b6000600a838154811062000b7b5762000b7a62003cc3565b5b906000526020600020906008020190506000600b600085815260200190815260200160002060003373ffffffffffffffffffffffffffffffffffffffff1673ffffffffffffffffffffffffffffffffffffffff1681526020019081526020016000209050828160000154101562000c29576040517f08c379a000000000000000000000000000000000000000000000000000000000815260040162000c209062003d42565b60405180910390fd5b62000c3484620010f9565b600062000c84826001015462000c7564e8d4a5100062000c66876002015487600001546200284e90919063ffffffff16565b6200286690919063ffffffff16565b6200287e90919063ffffffff16565b9050600062000cd6836002015462000cc764e8d4a5100062000cb8886006015488600001546200284e90919063ffffffff16565b6200286690919063ffffffff16565b6200287e90919063ffffffff16565b905062000cf18584600001546200287e90919063ffffffff16565b836000018190555062000d2f64e8d4a5100062000d20866002015486600001546200284e90919063ffffffff16565b6200286690919063ffffffff16565b836001018190555062000d6d64e8d4a5100062000d5e866006015486600201546200284e90919063ffffffff16565b6200286690919063ffffffff16565b8360020181905550600082111562000d8c5762000d8b338362002896565b5b600081111562000da35762000da2338262002976565b5b62000df433868660000160009054906101000a900473ffffffffffffffffffffffffffffffffffffffff1673ffffffffffffffffffffffffffffffffffffffff1662002ad59092919063ffffffff16565b853373ffffffffffffffffffffffffffffffffffffffff167ff279e6a1f5e320cca91135676d9cb6e44ca8a08c0b88342bcdb1144f6511b5688760405162000e3d919062003724565b60405180910390a3505050505050565b62000e576200273c565b73ffffffffffffffffffffffffffffffffffffffff1662000e7762001901565b73ffffffffffffffffffffffffffffffffffffffff161462000ed0576040517f08c379a000000000000000000000000000000000000000000000000000000000815260040162000ec79062003c2f565b60405180910390fd5b6000600a838154811062000ee95762000ee862003cc3565b5b9060005260206000209060080201905081816004018190555060018160050160006101000a81548160ff02191690831515021790555060008160070160009054906101000a900473ffffffffffffffffffffffffffffffffffffffff1690508073ffffffffffffffffffffffffffffffffffffffff16631249c58b6040518163ffffffff1660e01b8152600401600060405180830381600087803b15801562000f9157600080fd5b505af115801562000fa6573d6000803e3d6000fd5b505050508073ffffffffffffffffffffffffffffffffffffffff1663095ea7b3600160009054906101000a900473ffffffffffffffffffffffffffffffffffffffff16670de0b6b3a76400006040518363ffffffff1660e01b81526004016200101192919062003da7565b6020604051808303816000875af115801562001031573d6000803e3d6000fd5b505050506040513d601f19601f8201168201806040525081019062001057919062003e05565b50600160009054906101000a900473ffffffffffffffffffffffffffffffffffffffff1673ffffffffffffffffffffffffffffffffffffffff1663e2bbb15884670de0b6b3a76400006040518363ffffffff1660e01b8152600401620010bf92919062003e37565b600060405180830381600087803b158015620010da57600080fd5b505af1158015620010ef573d6000803e3d6000fd5b5050505050505050565b62001103620013be565b6200111081600062002b5f565b50565b6000600a82815481106200112c576200112b62003cc3565b5b906000526020600020906008020190506000600b600084815260200190815260200160002060003373ffffffffffffffffffffffffffffffffffffffff1673ffffffffffffffffffffffffffffffffffffffff16815260200190815260200160002090506000816000015490506000826000018190555060008260010181905550620011fe33828560000160009054906101000a900473ffffffffffffffffffffffffffffffffffffffff1673ffffffffffffffffffffffffffffffffffffffff1662002ad59092919063ffffffff16565b833373ffffffffffffffffffffffffffffffffffffffff167fbb757047c2b5f3974fe26b7c10f732e7bce710b0952a71082702781e62ae05958360405162001247919062003724565b60405180910390a350505050565b600160009054906101000a900473ffffffffffffffffffffffffffffffffffffffff1681565b60075481565b6200128b620013be565b6000600a80549050905060005b81811015620012cc57620012ae81600162002b5f565b620012c46001826200283690919063ffffffff16565b905062001298565b50600060098190555050565b61dead81565b620012e86200273c565b73ffffffffffffffffffffffffffffffffffffffff166200130862001901565b73ffffffffffffffffffffffffffffffffffffffff161462001361576040517f08c379a0000000000000000000000000000000000000000000000000000000008152600401620013589062003c2f565b60405180910390fd5b6200136d600062002fe9565b565b7f000000000000000000000000000000000000000000000000000000000000000081565b620186a081565b7f000000000000000000000000000000000000000000000000000000000000000081565b600754421115620018ff5760007f000000000000000000000000000000000000000000000000000000000000000073ffffffffffffffffffffffffffffffffffffffff166318160ddd6040518163ffffffff1660e01b8152600401602060405180830381865afa15801562001437573d6000803e3d6000fd5b505050506040513d601f19601f820116820180604052508101906200145d919062003e7b565b905060007f000000000000000000000000000000000000000000000000000000000000000073ffffffffffffffffffffffffffffffffffffffff16635db30bb16040518163ffffffff1660e01b8152600401602060405180830381865afa158015620014cd573d6000803e3d6000fd5b505050506040513d601f19601f82011682018060405250810190620014f3919062003e7b565b905060006200151b6004546200150c60075442620030ad565b6200284e90919063ffffffff16565b9050816200153384836200283690919063ffffffff16565b1162001540578062001556565b6200155583836200287e90919063ffffffff16565b5b905060008103620015715742600781905550505050620018ff565b6000620015d76127106040518060400160405280601681526020017f496e76616c6964204d4944415320666f72204661726d00000000000000000000815250620015c7600554866200284e90919063ffffffff16565b6200318a9092919063ffffffff16565b905060007f000000000000000000000000000000000000000000000000000000000000000073ffffffffffffffffffffffffffffffffffffffff166340c10f1930846040518363ffffffff1660e01b81526004016200163892919062003ead565b600060405180830381600087803b1580156200165357600080fd5b505af115801562001668573d6000803e3d6000fd5b5050505062001683826008546200283690919063ffffffff16565b600881905550620016a0826009546200283690919063ffffffff16565b600981905550600073ffffffffffffffffffffffffffffffffffffffff16600360009054906101000a900473ffffffffffffffffffffffffffffffffffffffff1673ffffffffffffffffffffffffffffffffffffffff16146200181757620017616127106040518060400160405280601881526020017f496e76616c6964204d4944415320666f7220584d49444153000000000000000081525062001751600654876200284e90919063ffffffff16565b6200318a9092919063ffffffff16565b90507f000000000000000000000000000000000000000000000000000000000000000073ffffffffffffffffffffffffffffffffffffffff166340c10f19600360009054906101000a900473ffffffffffffffffffffffffffffffffffffffff16836040518363ffffffff1660e01b8152600401620017e292919062003ead565b600060405180830381600087803b158015620017fd57600080fd5b505af115801562001812573d6000803e3d6000fd5b505050505b7f000000000000000000000000000000000000000000000000000000000000000073ffffffffffffffffffffffffffffffffffffffff166340c10f19600260009054906101000a900473ffffffffffffffffffffffffffffffffffffffff166200189f846200189087896200287e90919063ffffffff16565b6200287e90919063ffffffff16565b6040518363ffffffff1660e01b8152600401620018be92919062003ead565b600060405180830381600087803b158015620018d957600080fd5b505af1158015620018ee573d6000803e3d6000fd5b505050504260078190555050505050505b565b60008060009054906101000a900473ffffffffffffffffffffffffffffffffffffffff16905090565b670de0b6b3a764000081565b600b602052816000526040600020602052806000526040600020600091509150508060000154908060010154908060020154905083565b60055481565b60065481565b60045481565b620019896200273c565b73ffffffffffffffffffffffffffffffffffffffff16620019a962001901565b73ffffffffffffffffffffffffffffffffffffffff161462001a02576040517f08c379a0000000000000000000000000000000000000000000000000000000008152600401620019f99062003c2f565b60405180910390fd5b6000600a828154811062001a1b5762001a1a62003cc3565b5b906000526020600020906008020160050160006101000a81548160ff02191690831515021790555050565b7f000000000000000000000000000000000000000000000000000000000000000081565b60095481565b6000806000600a858154811062001a8c5762001a8b62003cc3565b5b906000526020600020906008020190506000600b600087815260200190815260200160002060008673ffffffffffffffffffffffffffffffffffffffff1673ffffffffffffffffffffffffffffffffffffffff1681526020019081526020016000209050600082600201549050600083600601549050600062001b338560000160009054906101000a900473ffffffffffffffffffffffffffffffffffffffff16620031f2565b90506007544211801562001b48575060008114155b1562001df65760007f000000000000000000000000000000000000000000000000000000000000000073ffffffffffffffffffffffffffffffffffffffff166318160ddd6040518163ffffffff1660e01b8152600401602060405180830381865afa15801562001bbc573d6000803e3d6000fd5b505050506040513d601f19601f8201168201806040525081019062001be2919062003e7b565b905060007f000000000000000000000000000000000000000000000000000000000000000073ffffffffffffffffffffffffffffffffffffffff16635db30bb16040518163ffffffff1660e01b8152600401602060405180830381865afa15801562001c52573d6000803e3d6000fd5b505050506040513d601f19601f8201168201806040525081019062001c78919062003e7b565b9050600062001ca060045462001c9160075442620030ad565b6200284e90919063ffffffff16565b90508162001cb884836200283690919063ffffffff16565b1162001cc5578062001cdb565b62001cda83836200287e90919063ffffffff16565b5b9050600062001d436127106040518060400160405280601681526020017f496e76616c6964204d4944415320666f72204661726d0000000000000000000081525062001d33600554866200284e90919063ffffffff16565b6200318a9092919063ffffffff16565b9050600062001d5e826009546200283690919063ffffffff16565b9050600062001da98b6003015462001d9a600c5462001d8b8f60010154876200284e90919063ffffffff16565b6200286690919063ffffffff16565b6200287e90919063ffffffff16565b905062001ded62001ddd8862001dce64e8d4a51000856200284e90919063ffffffff16565b6200286690919063ffffffff16565b8a6200283690919063ffffffff16565b98505050505050505b60008560050160009054906101000a900460ff161562001eef576000600160009054906101000a900473ffffffffffffffffffffffffffffffffffffffff1673ffffffffffffffffffffffffffffffffffffffff1663bd2d2bb18860040154306040518363ffffffff1660e01b815260040162001e7592919062003eda565b602060405180830381865afa15801562001e93573d6000803e3d6000fd5b505050506040513d601f19601f8201168201806040525081019062001eb9919062003e7b565b9050600062001ed3600a836200286690919063ffffffff16565b905062001eea81836200287e90919063ffffffff16565b925050505b62001f3162001f218362001f1264e8d4a51000856200284e90919063ffffffff16565b6200286690919063ffffffff16565b846200283690919063ffffffff16565b925062001f7d856001015462001f6e64e8d4a5100062001f5f888a600001546200284e90919063ffffffff16565b6200286690919063ffffffff16565b6200287e90919063ffffffff16565b975062001fc9856002015462001fba64e8d4a5100062001fab878a600001546200284e90919063ffffffff16565b6200286690919063ffffffff16565b6200287e90919063ffffffff16565b96505050505050509250929050565b62001fe26200273c565b73ffffffffffffffffffffffffffffffffffffffff166200200262001901565b73ffffffffffffffffffffffffffffffffffffffff16146200205b576040517f08c379a0000000000000000000000000000000000000000000000000000000008152600401620020529062003c2f565b60405180910390fd5b670de0b6b3a76400008110620020a8576040517f08c379a00000000000000000000000000000000000000000000000000000000081526004016200209f9062003f57565b60405180910390fd5b620020b262001281565b8060048190555050565b620020c66200273c565b73ffffffffffffffffffffffffffffffffffffffff16620020e662001901565b73ffffffffffffffffffffffffffffffffffffffff16146200213f576040517f08c379a0000000000000000000000000000000000000000000000000000000008152600401620021369062003c2f565b60405180910390fd5b62002149620013be565b8060068190555050565b6200215d6200273c565b73ffffffffffffffffffffffffffffffffffffffff166200217d62001901565b73ffffffffffffffffffffffffffffffffffffffff1614620021d6576040517f08c379a0000000000000000000000000000000000000000000000000000000008152600401620021cd9062003c2f565b60405180910390fd5b620186a08111156200221f576040517f08c379a0000000000000000000000000000000000000000000000000000000008152600401620022169062003ca1565b60405180910390fd5b6200222962001281565b6200227c816200226d600a858154811062002249576200224862003cc3565b5b906000526020600020906008020160010154600c546200287e90919063ffffffff16565b6200283690919063ffffffff16565b600c8190555080600a83815481106200229a576200229962003cc3565b5b9060005260206000209060080201600101819055505050565b6000600a8381548110620022cc57620022cb62003cc3565b5b906000526020600020906008020190506000600b600085815260200190815260200160002060003373ffffffffffffffffffffffffffffffffffffffff1673ffffffffffffffffffffffffffffffffffffffff16815260200190815260200160002090506200233b84620010f9565b60006200238b82600101546200237c64e8d4a510006200236d876002015487600001546200284e90919063ffffffff16565b6200286690919063ffffffff16565b6200287e90919063ffffffff16565b90506000620023dd8360020154620023ce64e8d4a51000620023bf886006015488600001546200284e90919063ffffffff16565b6200286690919063ffffffff16565b6200287e90919063ffffffff16565b9050620023f88584600001546200283690919063ffffffff16565b83600001819055506200243664e8d4a5100062002427866002015486600001546200284e90919063ffffffff16565b6200286690919063ffffffff16565b83600101819055506200247464e8d4a5100062002465866006015486600001546200284e90919063ffffffff16565b6200286690919063ffffffff16565b83600201819055506000821115620024935762002492338362002896565b5b6000811115620024aa57620024a9338262002976565b5b620024fd3330878760000160009054906101000a900473ffffffffffffffffffffffffffffffffffffffff1673ffffffffffffffffffffffffffffffffffffffff166200338c909392919063ffffffff16565b853373ffffffffffffffffffffffffffffffffffffffff167f90890809c654f11d6e72a28fa60149770a0d11ec6c92319d6ceb2bb0a4ea1a158760405162002546919062003724565b60405180910390a3505050505050565b600360009054906101000a900473ffffffffffffffffffffffffffffffffffffffff1681565b620025866200273c565b73ffffffffffffffffffffffffffffffffffffffff16620025a662001901565b73ffffffffffffffffffffffffffffffffffffffff1614620025ff576040517f08c379a0000000000000000000000000000000000000000000000000000000008152600401620025f69062003c2f565b60405180910390fd5b6200260962001281565b8060058190555050565b600260009054906101000a900473ffffffffffffffffffffffffffffffffffffffff1681565b620026436200273c565b73ffffffffffffffffffffffffffffffffffffffff166200266362001901565b73ffffffffffffffffffffffffffffffffffffffff1614620026bc576040517f08c379a0000000000000000000000000000000000000000000000000000000008152600401620026b39062003c2f565b60405180910390fd5b600073ffffffffffffffffffffffffffffffffffffffff168173ffffffffffffffffffffffffffffffffffffffff16036200272e576040517f08c379a0000000000000000000000000000000000000000000000000000000008152600401620027259062003fef565b60405180910390fd5b620027398162002fe9565b50565b600033905090565b6000600a80549050905060005b8181101562002831578273ffffffffffffffffffffffffffffffffffffffff16600a828154811062002788576200278762003cc3565b5b906000526020600020906008020160000160009054906101000a900473ffffffffffffffffffffffffffffffffffffffff1673ffffffffffffffffffffffffffffffffffffffff160362002813576040517f08c379a00000000000000000000000000000000000000000000000000000000081526004016200280a9062004061565b60405180910390fd5b620028296001826200283690919063ffffffff16565b905062002751565b505050565b60008183620028469190620040b2565b905092915050565b600081836200285e9190620040ed565b905092915050565b6000818362002876919062004167565b905092915050565b600081836200288e91906200419f565b905092915050565b60006008549050808211620028ac5781620028ae565b805b91507f000000000000000000000000000000000000000000000000000000000000000073ffffffffffffffffffffffffffffffffffffffff1663a9059cbb84846040518363ffffffff1660e01b81526004016200290d92919062003ead565b6020604051808303816000875af11580156200292d573d6000803e3d6000fd5b505050506040513d601f19601f8201168201806040525081019062002953919062003e05565b506200296b826008546200287e90919063ffffffff16565b600881905550505050565b60007f000000000000000000000000000000000000000000000000000000000000000073ffffffffffffffffffffffffffffffffffffffff166370a08231306040518263ffffffff1660e01b8152600401620029d3919062003aa1565b602060405180830381865afa158015620029f1573d6000803e3d6000fd5b505050506040513d601f19601f8201168201806040525081019062002a17919062003e7b565b905080821162002a28578162002a2a565b805b91507f000000000000000000000000000000000000000000000000000000000000000073ffffffffffffffffffffffffffffffffffffffff1663a9059cbb84846040518363ffffffff1660e01b815260040162002a8992919062003ead565b6020604051808303816000875af115801562002aa9573d6000803e3d6000fd5b505050506040513d601f19601f8201168201806040525081019062002acf919062003e05565b50505050565b62002b5a8363a9059cbb60e01b848460405160240162002af792919062003ead565b604051602081830303815290604052907bffffffffffffffffffffffffffffffffffffffffffffffffffffffff19166020820180517bffffffffffffffffffffffffffffffffffffffffffffffffffffffff838183161783525050505062003419565b505050565b6000600a838154811062002b785762002b7762003cc3565b5b9060005260206000209060080201905060008160050160009054906101000a900460ff161562002d945760007f000000000000000000000000000000000000000000000000000000000000000073ffffffffffffffffffffffffffffffffffffffff166370a08231306040518263ffffffff1660e01b815260040162002bff919062003aa1565b602060405180830381865afa15801562002c1d573d6000803e3d6000fd5b505050506040513d601f19601f8201168201806040525081019062002c43919062003e7b565b9050600160009054906101000a900473ffffffffffffffffffffffffffffffffffffffff1673ffffffffffffffffffffffffffffffffffffffff1663e2bbb158846004015460006040518363ffffffff1660e01b815260040162002ca99291906200421d565b600060405180830381600087803b15801562002cc457600080fd5b505af115801562002cd9573d6000803e3d6000fd5b5050505062002d90817f000000000000000000000000000000000000000000000000000000000000000073ffffffffffffffffffffffffffffffffffffffff166370a08231306040518263ffffffff1660e01b815260040162002d3d919062003aa1565b602060405180830381865afa15801562002d5b573d6000803e3d6000fd5b505050506040513d601f19601f8201168201806040525081019062002d81919062003e7b565b6200287e90919063ffffffff16565b9150505b600062002dc58360000160009054906101000a900473ffffffffffffffffffffffffffffffffffffffff16620031f2565b90506000810362002ec7577f000000000000000000000000000000000000000000000000000000000000000073ffffffffffffffffffffffffffffffffffffffff1663a9059cbb61dead846040518363ffffffff1660e01b815260040162002e2f92919062003ead565b6020604051808303816000875af115801562002e4f573d6000803e3d6000fd5b505050506040513d601f19601f8201168201806040525081019062002e75919062003e05565b508362002eb35762002ead600c5462002e9e85600101546009546200284e90919063ffffffff16565b6200286690919063ffffffff16565b62002eb6565b60005b836003018190555050505062002fe5565b600062002f12846003015462002f03600c5462002ef488600101546009546200284e90919063ffffffff16565b6200286690919063ffffffff16565b6200287e90919063ffffffff16565b905062002f5a62002f468362002f3764e8d4a51000856200284e90919063ffffffff16565b6200286690919063ffffffff16565b85600201546200283690919063ffffffff16565b846002018190555062002fa862002f948362002f8564e8d4a51000876200284e90919063ffffffff16565b6200286690919063ffffffff16565b85600601546200283690919063ffffffff16565b84600601819055508462002fd55762002fcf8185600301546200283690919063ffffffff16565b62002fd8565b60005b8460030181905550505050505b5050565b60008060009054906101000a900473ffffffffffffffffffffffffffffffffffffffff169050816000806101000a81548173ffffffffffffffffffffffffffffffffffffffff021916908373ffffffffffffffffffffffffffffffffffffffff1602179055508173ffffffffffffffffffffffffffffffffffffffff168173ffffffffffffffffffffffffffffffffffffffff167f8be0079c531659141344cd1fd0a4f28419497f9722a3daafe3b4186f6b6457e060405160405180910390a35050565b60007f00000000000000000000000000000000000000000000000000000000000000008311620030fe577f000000000000000000000000000000000000000000000000000000000000000062003100565b825b92507f000000000000000000000000000000000000000000000000000000000000000082101562003135576000905062003184565b62003181836040518060400160405280600a81526020017f54696d65206572726f720000000000000000000000000000000000000000000081525084620034e89092919063ffffffff16565b90505b92915050565b60008083118290620031d4576040517f08c379a0000000000000000000000000000000000000000000000000000000008152600401620031cb9190620042d3565b60405180910390fd5b50828481620031e857620031e762004138565b5b0490509392505050565b60007f000000000000000000000000000000000000000000000000000000000000000073ffffffffffffffffffffffffffffffffffffffff168273ffffffffffffffffffffffffffffffffffffffff16036200330557620032fd6008547f000000000000000000000000000000000000000000000000000000000000000073ffffffffffffffffffffffffffffffffffffffff166370a08231306040518263ffffffff1660e01b8152600401620032aa919062003aa1565b602060405180830381865afa158015620032c8573d6000803e3d6000fd5b505050506040513d601f19601f82011682018060405250810190620032ee919062003e7b565b6200287e90919063ffffffff16565b905062003387565b8173ffffffffffffffffffffffffffffffffffffffff166370a08231306040518263ffffffff1660e01b815260040162003340919062003aa1565b602060405180830381865afa1580156200335e573d6000803e3d6000fd5b505050506040513d601f19601f8201168201806040525081019062003384919062003e7b565b90505b919050565b62003413846323b872dd60e01b858585604051602401620033b093929190620042f7565b604051602081830303815290604052907bffffffffffffffffffffffffffffffffffffffffffffffffffffffff19166020820180517bffffffffffffffffffffffffffffffffffffffffffffffffffffffff838183161783525050505062003419565b50505050565b60006200347d826040518060400160405280602081526020017f5361666545524332303a206c6f772d6c6576656c2063616c6c206661696c65648152508573ffffffffffffffffffffffffffffffffffffffff16620035409092919063ffffffff16565b9050600081511115620034e35780806020019051810190620034a0919062003e05565b620034e2576040517f08c379a0000000000000000000000000000000000000000000000000000000008152600401620034d990620043aa565b60405180910390fd5b5b505050565b600083831115829062003533576040517f08c379a00000000000000000000000000000000000000000000000000000000081526004016200352a9190620042d3565b60405180910390fd5b5082840390509392505050565b60606200355184846000856200355a565b90509392505050565b606082471015620035a2576040517f08c379a0000000000000000000000000000000000000000000000000000000008152600401620035999062004442565b60405180910390fd5b620035ad856200367c565b620035ef576040517f08c379a0000000000000000000000000000000000000000000000000000000008152600401620035e690620044b4565b60405180910390fd5b6000808673ffffffffffffffffffffffffffffffffffffffff1685876040516200361a919062004523565b60006040518083038185875af1925050503d806000811462003659576040519150601f19603f3d011682016040523d82523d6000602084013e6200365e565b606091505b5091509150620036708282866200368f565b92505050949350505050565b600080823b905060008111915050919050565b60608315620036a157829050620036f4565b600083511115620036b55782518084602001fd5b816040517f08c379a0000000000000000000000000000000000000000000000000000000008152600401620036eb9190620042d3565b60405180910390fd5b9392505050565b611f0f806200453d83390190565b6000819050919050565b6200371e8162003709565b82525050565b60006020820190506200373b600083018462003713565b92915050565b600080fd5b620037518162003709565b81146200375d57600080fd5b50565b600081359050620037718162003746565b92915050565b60006020828403121562003790576200378f62003741565b5b6000620037a08482850162003760565b91505092915050565b600073ffffffffffffffffffffffffffffffffffffffff82169050919050565b6000819050919050565b6000620037f4620037ee620037e884620037a9565b620037c9565b620037a9565b9050919050565b60006200380882620037d3565b9050919050565b60006200381c82620037fb565b9050919050565b6200382e816200380f565b82525050565b60008115159050919050565b6200384b8162003834565b82525050565b60006200385e82620037fb565b9050919050565b620038708162003851565b82525050565b6000610100820190506200388e600083018b62003823565b6200389d602083018a62003713565b620038ac604083018962003713565b620038bb606083018862003713565b620038ca608083018762003713565b620038d960a083018662003840565b620038e860c083018562003713565b620038f760e083018462003865565b9998505050505050505050565b60006200391182620037a9565b9050919050565b6000620039258262003904565b9050919050565b620039378162003918565b81146200394357600080fd5b50565b60008135905062003957816200392c565b92915050565b6000806040838503121562003977576200397662003741565b5b6000620039878582860162003760565b92505060206200399a8582860162003946565b9150509250929050565b620039af8162003904565b8114620039bb57600080fd5b50565b600081359050620039cf81620039a4565b92915050565b600060208284031215620039ee57620039ed62003741565b5b6000620039fe84828501620039be565b91505092915050565b6000806040838503121562003a215762003a2062003741565b5b600062003a318582860162003760565b925050602062003a448582860162003760565b9150509250929050565b600062003a5b82620037fb565b9050919050565b62003a6d8162003a4e565b82525050565b600060208201905062003a8a600083018462003a62565b92915050565b62003a9b8162003904565b82525050565b600060208201905062003ab8600083018462003a90565b92915050565b600062003acb82620037fb565b9050919050565b62003add8162003abe565b82525050565b600060208201905062003afa600083018462003ad2565b92915050565b6000806040838503121562003b1a5762003b1962003741565b5b600062003b2a8582860162003760565b925050602062003b3d85828601620039be565b9150509250929050565b600060608201905062003b5e600083018662003713565b62003b6d602083018562003713565b62003b7c604083018462003713565b949350505050565b600060208201905062003b9b600083018462003823565b92915050565b600060408201905062003bb8600083018562003713565b62003bc7602083018462003713565b9392505050565b600082825260208201905092915050565b7f4f776e61626c653a2063616c6c6572206973206e6f7420746865206f776e6572600082015250565b600062003c1760208362003bce565b915062003c248262003bdf565b602082019050919050565b6000602082019050818103600083015262003c4a8162003c08565b9050919050565b7f546f6f206d616e7920616c6c6f6320706f696e74730000000000000000000000600082015250565b600062003c8960158362003bce565b915062003c968262003c51565b602082019050919050565b6000602082019050818103600083015262003cbc8162003c7a565b9050919050565b7f4e487b7100000000000000000000000000000000000000000000000000000000600052603260045260246000fd5b7f5769746864726177696e6720746f6f206d756368000000000000000000000000600082015250565b600062003d2a60148362003bce565b915062003d378262003cf2565b602082019050919050565b6000602082019050818103600083015262003d5d8162003d1b565b9050919050565b6000819050919050565b600062003d8f62003d8962003d838462003d64565b620037c9565b62003709565b9050919050565b62003da18162003d6e565b82525050565b600060408201905062003dbe600083018562003a90565b62003dcd602083018462003d96565b9392505050565b62003ddf8162003834565b811462003deb57600080fd5b50565b60008151905062003dff8162003dd4565b92915050565b60006020828403121562003e1e5762003e1d62003741565b5b600062003e2e8482850162003dee565b91505092915050565b600060408201905062003e4e600083018562003713565b62003e5d602083018462003d96565b9392505050565b60008151905062003e758162003746565b92915050565b60006020828403121562003e945762003e9362003741565b5b600062003ea48482850162003e64565b91505092915050565b600060408201905062003ec4600083018562003a90565b62003ed3602083018462003713565b9392505050565b600060408201905062003ef1600083018562003713565b62003f00602083018462003a90565b9392505050565b7f546f6f206d616e79204d4944415320706572207365636f6e6400000000000000600082015250565b600062003f3f60198362003bce565b915062003f4c8262003f07565b602082019050919050565b6000602082019050818103600083015262003f728162003f30565b9050919050565b7f4f776e61626c653a206e6577206f776e657220697320746865207a65726f206160008201527f6464726573730000000000000000000000000000000000000000000000000000602082015250565b600062003fd760268362003bce565b915062003fe48262003f79565b604082019050919050565b600060208201905081810360008301526200400a8162003fc8565b9050919050565b7f506f6f6c20616c72656164792065786973747300000000000000000000000000600082015250565b60006200404960138362003bce565b9150620040568262004011565b602082019050919050565b600060208201905081810360008301526200407c816200403a565b9050919050565b7f4e487b7100000000000000000000000000000000000000000000000000000000600052601160045260246000fd5b6000620040bf8262003709565b9150620040cc8362003709565b9250828201905080821115620040e757620040e662004083565b5b92915050565b6000620040fa8262003709565b9150620041078362003709565b9250828202620041178162003709565b9150828204841483151762004131576200413062004083565b5b5092915050565b7f4e487b7100000000000000000000000000000000000000000000000000000000600052601260045260246000fd5b6000620041748262003709565b9150620041818362003709565b92508262004194576200419362004138565b5b828204905092915050565b6000620041ac8262003709565b9150620041b98362003709565b9250828203905081811115620041d457620041d362004083565b5b92915050565b6000819050919050565b600062004205620041ff620041f984620041da565b620037c9565b62003709565b9050919050565b6200421781620041e4565b82525050565b600060408201905062004234600083018562003713565b6200424360208301846200420c565b9392505050565b600081519050919050565b60005b838110156200427557808201518184015260208101905062004258565b60008484015250505050565b6000601f19601f8301169050919050565b60006200429f826200424a565b620042ab818562003bce565b9350620042bd81856020860162004255565b620042c88162004281565b840191505092915050565b60006020820190508181036000830152620042ef818462004292565b905092915050565b60006060820190506200430e600083018662003a90565b6200431d602083018562003a90565b6200432c604083018462003713565b949350505050565b7f5361666545524332303a204552433230206f7065726174696f6e20646964206e60008201527f6f74207375636365656400000000000000000000000000000000000000000000602082015250565b600062004392602a8362003bce565b91506200439f8262004334565b604082019050919050565b60006020820190508181036000830152620043c58162004383565b9050919050565b7f416464726573733a20696e73756666696369656e742062616c616e636520666f60008201527f722063616c6c0000000000000000000000000000000000000000000000000000602082015250565b60006200442a60268362003bce565b91506200443782620043cc565b604082019050919050565b600060208201905081810360008301526200445d816200441b565b9050919050565b7f416464726573733a2063616c6c20746f206e6f6e2d636f6e7472616374000000600082015250565b60006200449c601d8362003bce565b9150620044a98262004464565b602082019050919050565b60006020820190508181036000830152620044cf816200448d565b9050919050565b600081519050919050565b600081905092915050565b6000620044f982620044d6565b620045058185620044e1565b93506200451781856020860162004255565b80840191505092915050565b6000620045318284620044ec565b91508190509291505056fe60806040523480156200001157600080fd5b506040518060400160405280601481526020017f4d69646173536872617044756d6d79546f6b656e0000000000000000000000008152506040518060400160405280601481526020017f4d69646173536872617044756d6d79546f6b656e00000000000000000000000081525081600390816200008f919062000412565b508060049081620000a1919062000412565b505050620000c4620000b8620000ca60201b60201c565b620000d260201b60201c565b620004f9565b600033905090565b6000600560009054906101000a900473ffffffffffffffffffffffffffffffffffffffff16905081600560006101000a81548173ffffffffffffffffffffffffffffffffffffffff021916908373ffffffffffffffffffffffffffffffffffffffff1602179055508173ffffffffffffffffffffffffffffffffffffffff168173ffffffffffffffffffffffffffffffffffffffff167f8be0079c531659141344cd1fd0a4f28419497f9722a3daafe3b4186f6b6457e060405160405180910390a35050565b600081519050919050565b7f4e487b7100000000000000000000000000000000000000000000000000000000600052604160045260246000fd5b7f4e487b7100000000000000000000000000000000000000000000000000000000600052602260045260246000fd5b600060028204905060018216806200021a57607f821691505b60208210810362000230576200022f620001d2565b5b50919050565b60008190508160005260206000209050919050565b60006020601f8301049050919050565b600082821b905092915050565b6000600883026200029a7fffffffffffffffffffffffffffffffffffffffffffffffffffffffffffffffff826200025b565b620002a686836200025b565b95508019841693508086168417925050509392505050565b6000819050919050565b6000819050919050565b6000620002f3620002ed620002e784620002be565b620002c8565b620002be565b9050919050565b6000819050919050565b6200030f83620002d2565b620003276200031e82620002fa565b84845462000268565b825550505050565b600090565b6200033e6200032f565b6200034b81848462000304565b505050565b5b8181101562000373576200036760008262000334565b60018101905062000351565b5050565b601f821115620003c2576200038c8162000236565b62000397846200024b565b81016020851015620003a7578190505b620003bf620003b6856200024b565b83018262000350565b50505b505050565b600082821c905092915050565b6000620003e760001984600802620003c7565b1980831691505092915050565b6000620004028383620003d4565b9150826002028217905092915050565b6200041d8262000198565b67ffffffffffffffff811115620004395762000438620001a3565b5b62000445825462000201565b6200045282828562000377565b600060209050601f8311600181146200048a576000841562000475578287015190505b620004818582620003f4565b865550620004f1565b601f1984166200049a8662000236565b60005b82811015620004c4578489015182556001820191506020850194506020810190506200049d565b86831015620004e45784890151620004e0601f891682620003d4565b8355505b6001600288020188555050505b505050505050565b611a0680620005096000396000f3fe608060405234801561001057600080fd5b50600436106100f55760003560e01c806370a0823111610097578063a457c2d711610066578063a457c2d714610264578063a9059cbb14610294578063dd62ed3e146102c4578063f2fde38b146102f4576100f5565b806370a08231146101ee578063715018a61461021e5780638da5cb5b1461022857806395d89b4114610246576100f5565b806318160ddd116100d357806318160ddd1461015257806323b872dd14610170578063313ce567146101a057806339509351146101be576100f5565b806306fdde03146100fa578063095ea7b3146101185780631249c58b14610148575b600080fd5b610102610310565b60405161010f9190611129565b60405180910390f35b610132600480360381019061012d91906111e4565b6103a2565b60405161013f919061123f565b60405180910390f35b6101506103c0565b005b61015a610450565b6040516101679190611269565b60405180910390f35b61018a60048036038101906101859190611284565b61045a565b604051610197919061123f565b60405180910390f35b6101a8610552565b6040516101b591906112f3565b60405180910390f35b6101d860048036038101906101d391906111e4565b61055b565b6040516101e5919061123f565b60405180910390f35b6102086004803603810190610203919061130e565b610607565b6040516102159190611269565b60405180910390f35b61022661064f565b005b6102306106d7565b60405161023d919061134a565b60405180910390f35b61024e610701565b60405161025b9190611129565b60405180910390f35b61027e600480360381019061027991906111e4565b610793565b60405161028b919061123f565b60405180910390f35b6102ae60048036038101906102a991906111e4565b61087e565b6040516102bb919061123f565b60405180910390f35b6102de60048036038101906102d99190611365565b61089c565b6040516102eb9190611269565b60405180910390f35b61030e6004803603810190610309919061130e565b610923565b005b60606003805461031f906113d4565b80601f016020809104026020016040519081016040528092919081815260200182805461034b906113d4565b80156103985780601f1061036d57610100808354040283529160200191610398565b820191906000526020600020905b81548152906001019060200180831161037b57829003601f168201915b5050505050905090565b60006103b66103af610a1a565b8484610a22565b6001905092915050565b6103c8610a1a565b73ffffffffffffffffffffffffffffffffffffffff166103e66106d7565b73ffffffffffffffffffffffffffffffffffffffff161461043c576040517f08c379a000000000000000000000000000000000000000000000000000000000815260040161043390611451565b60405180910390fd5b61044e33670de0b6b3a7640000610beb565b565b6000600254905090565b6000610467848484610d4a565b6000600160008673ffffffffffffffffffffffffffffffffffffffff1673ffffffffffffffffffffffffffffffffffffffff16815260200190815260200160002060006104b2610a1a565b73ffffffffffffffffffffffffffffffffffffffff1673ffffffffffffffffffffffffffffffffffffffff16815260200190815260200160002054905082811015610532576040517f08c379a0000000000000000000000000000000000000000000000000000000008152600401610529906114e3565b60405180910390fd5b6105468561053e610a1a565b858403610a22565b60019150509392505050565b60006012905090565b60006105fd610568610a1a565b848460016000610576610a1a565b73ffffffffffffffffffffffffffffffffffffffff1673ffffffffffffffffffffffffffffffffffffffff16815260200190815260200160002060008873ffffffffffffffffffffffffffffffffffffffff1673ffffffffffffffffffffffffffffffffffffffff168152602001908152602001600020546105f89190611532565b610a22565b6001905092915050565b60008060008373ffffffffffffffffffffffffffffffffffffffff1673ffffffffffffffffffffffffffffffffffffffff168152602001908152602001600020549050919050565b610657610a1a565b73ffffffffffffffffffffffffffffffffffffffff166106756106d7565b73ffffffffffffffffffffffffffffffffffffffff16146106cb576040517f08c379a00000000000000000000000000000000000000000000000000000000081526004016106c290611451565b60405180910390fd5b6106d56000610fc9565b565b6000600560009054906101000a900473ffffffffffffffffffffffffffffffffffffffff16905090565b606060048054610710906113d4565b80601f016020809104026020016040519081016040528092919081815260200182805461073c906113d4565b80156107895780601f1061075e57610100808354040283529160200191610789565b820191906000526020600020905b81548152906001019060200180831161076c57829003601f168201915b5050505050905090565b600080600160006107a2610a1a565b73ffffffffffffffffffffffffffffffffffffffff1673ffffffffffffffffffffffffffffffffffffffff16815260200190815260200160002060008573ffffffffffffffffffffffffffffffffffffffff1673ffffffffffffffffffffffffffffffffffffffff1681526020019081526020016000205490508281101561085f576040517f08c379a0000000000000000000000000000000000000000000000000000000008152600401610856906115d8565b60405180910390fd5b61087361086a610a1a565b85858403610a22565b600191505092915050565b600061089261088b610a1a565b8484610d4a565b6001905092915050565b6000600160008473ffffffffffffffffffffffffffffffffffffffff1673ffffffffffffffffffffffffffffffffffffffff16815260200190815260200160002060008373ffffffffffffffffffffffffffffffffffffffff1673ffffffffffffffffffffffffffffffffffffffff16815260200190815260200160002054905092915050565b61092b610a1a565b73ffffffffffffffffffffffffffffffffffffffff166109496106d7565b73ffffffffffffffffffffffffffffffffffffffff161461099f576040517f08c379a000000000000000000000000000000000000000000000000000000000815260040161099690611451565b60405180910390fd5b600073ffffffffffffffffffffffffffffffffffffffff168173ffffffffffffffffffffffffffffffffffffffff1603610a0e576040517f08c379a0000000000000000000000000000000000000000000000000000000008152600401610a059061166a565b60405180910390fd5b610a1781610fc9565b50565b600033905090565b600073ffffffffffffffffffffffffffffffffffffffff168373ffffffffffffffffffffffffffffffffffffffff1603610a91576040517f08c379a0000000000000000000000000000000000000000000000000000000008152600401610a88906116fc565b60405180910390fd5b600073ffffffffffffffffffffffffffffffffffffffff168273ffffffffffffffffffffffffffffffffffffffff1603610b00576040517f08c379a0000000000000000000000000000000000000000000000000000000008152600401610af79061178e565b60405180910390fd5b80600160008573ffffffffffffffffffffffffffffffffffffffff1673ffffffffffffffffffffffffffffffffffffffff16815260200190815260200160002060008473ffffffffffffffffffffffffffffffffffffffff1673ffffffffffffffffffffffffffffffffffffffff168152602001908152602001600020819055508173ffffffffffffffffffffffffffffffffffffffff168373ffffffffffffffffffffffffffffffffffffffff167f8c5be1e5ebec7d5bd14f71427d1e84f3dd0314c0f7b2291e5b200ac8c7c3b92583604051610bde9190611269565b60405180910390a3505050565b600073ffffffffffffffffffffffffffffffffffffffff168273ffffffffffffffffffffffffffffffffffffffff1603610c5a576040517f08c379a0000000000000000000000000000000000000000000000000000000008152600401610c51906117fa565b60405180910390fd5b610c666000838361108f565b8060026000828254610c789190611532565b92505081905550806000808473ffffffffffffffffffffffffffffffffffffffff1673ffffffffffffffffffffffffffffffffffffffff1681526020019081526020016000206000828254610ccd9190611532565b925050819055508173ffffffffffffffffffffffffffffffffffffffff16600073ffffffffffffffffffffffffffffffffffffffff167fddf252ad1be2c89b69c2b068fc378daa952ba7f163c4a11628f55a4df523b3ef83604051610d329190611269565b60405180910390a3610d4660008383611094565b5050565b600073ffffffffffffffffffffffffffffffffffffffff168373ffffffffffffffffffffffffffffffffffffffff1603610db9576040517f08c379a0000000000000000000000000000000000000000000000000000000008152600401610db09061188c565b60405180910390fd5b600073ffffffffffffffffffffffffffffffffffffffff168273ffffffffffffffffffffffffffffffffffffffff1603610e28576040517f08c379a0000000000000000000000000000000000000000000000000000000008152600401610e1f9061191e565b60405180910390fd5b610e3383838361108f565b60008060008573ffffffffffffffffffffffffffffffffffffffff1673ffffffffffffffffffffffffffffffffffffffff16815260200190815260200160002054905081811015610eb9576040517f08c379a0000000000000000000000000000000000000000000000000000000008152600401610eb0906119b0565b60405180910390fd5b8181036000808673ffffffffffffffffffffffffffffffffffffffff1673ffffffffffffffffffffffffffffffffffffffff16815260200190815260200160002081905550816000808573ffffffffffffffffffffffffffffffffffffffff1673ffffffffffffffffffffffffffffffffffffffff1681526020019081526020016000206000828254610f4c9190611532565b925050819055508273ffffffffffffffffffffffffffffffffffffffff168473ffffffffffffffffffffffffffffffffffffffff167fddf252ad1be2c89b69c2b068fc378daa952ba7f163c4a11628f55a4df523b3ef84604051610fb09190611269565b60405180910390a3610fc3848484611094565b50505050565b6000600560009054906101000a900473ffffffffffffffffffffffffffffffffffffffff16905081600560006101000a81548173ffffffffffffffffffffffffffffffffffffffff021916908373ffffffffffffffffffffffffffffffffffffffff1602179055508173ffffffffffffffffffffffffffffffffffffffff168173ffffffffffffffffffffffffffffffffffffffff167f8be0079c531659141344cd1fd0a4f28419497f9722a3daafe3b4186f6b6457e060405160405180910390a35050565b505050565b505050565b600081519050919050565b600082825260208201905092915050565b60005b838110156110d35780820151818401526020810190506110b8565b60008484015250505050565b6000601f19601f8301169050919050565b60006110fb82611099565b61110581856110a4565b93506111158185602086016110b5565b61111e816110df565b840191505092915050565b6000602082019050818103600083015261114381846110f0565b905092915050565b600080fd5b600073ffffffffffffffffffffffffffffffffffffffff82169050919050565b600061117b82611150565b9050919050565b61118b81611170565b811461119657600080fd5b50565b6000813590506111a881611182565b92915050565b6000819050919050565b6111c1816111ae565b81146111cc57600080fd5b50565b6000813590506111de816111b8565b92915050565b600080604083850312156111fb576111fa61114b565b5b600061120985828601611199565b925050602061121a858286016111cf565b9150509250929050565b60008115159050919050565b61123981611224565b82525050565b60006020820190506112546000830184611230565b92915050565b611263816111ae565b82525050565b600060208201905061127e600083018461125a565b92915050565b60008060006060848603121561129d5761129c61114b565b5b60006112ab86828701611199565b93505060206112bc86828701611199565b92505060406112cd868287016111cf565b9150509250925092565b600060ff82169050919050565b6112ed816112d7565b82525050565b600060208201905061130860008301846112e4565b92915050565b6000602082840312156113245761132361114b565b5b600061133284828501611199565b91505092915050565b61134481611170565b82525050565b600060208201905061135f600083018461133b565b92915050565b6000806040838503121561137c5761137b61114b565b5b600061138a85828601611199565b925050602061139b85828601611199565b9150509250929050565b7f4e487b7100000000000000000000000000000000000000000000000000000000600052602260045260246000fd5b600060028204905060018216806113ec57607f821691505b6020821081036113ff576113fe6113a5565b5b50919050565b7f4f776e61626c653a2063616c6c6572206973206e6f7420746865206f776e6572600082015250565b600061143b6020836110a4565b915061144682611405565b602082019050919050565b6000602082019050818103600083015261146a8161142e565b9050919050565b7f45524332303a207472616e7366657220616d6f756e742065786365656473206160008201527f6c6c6f77616e6365000000000000000000000000000000000000000000000000602082015250565b60006114cd6028836110a4565b91506114d882611471565b604082019050919050565b600060208201905081810360008301526114fc816114c0565b9050919050565b7f4e487b7100000000000000000000000000000000000000000000000000000000600052601160045260246000fd5b600061153d826111ae565b9150611548836111ae565b92508282019050808211156115605761155f611503565b5b92915050565b7f45524332303a2064656372656173656420616c6c6f77616e63652062656c6f7760008201527f207a65726f000000000000000000000000000000000000000000000000000000602082015250565b60006115c26025836110a4565b91506115cd82611566565b604082019050919050565b600060208201905081810360008301526115f1816115b5565b9050919050565b7f4f776e61626c653a206e6577206f776e657220697320746865207a65726f206160008201527f6464726573730000000000000000000000000000000000000000000000000000602082015250565b60006116546026836110a4565b915061165f826115f8565b604082019050919050565b6000602082019050818103600083015261168381611647565b9050919050565b7f45524332303a20617070726f76652066726f6d20746865207a65726f2061646460008201527f7265737300000000000000000000000000000000000000000000000000000000602082015250565b60006116e66024836110a4565b91506116f18261168a565b604082019050919050565b60006020820190508181036000830152611715816116d9565b9050919050565b7f45524332303a20617070726f766520746f20746865207a65726f20616464726560008201527f7373000000000000000000000000000000000000000000000000000000000000602082015250565b60006117786022836110a4565b91506117838261171c565b604082019050919050565b600060208201905081810360008301526117a78161176b565b9050919050565b7f45524332303a206d696e7420746f20746865207a65726f206164647265737300600082015250565b60006117e4601f836110a4565b91506117ef826117ae565b602082019050919050565b60006020820190508181036000830152611813816117d7565b9050919050565b7f45524332303a207472616e736665722066726f6d20746865207a65726f20616460008201527f6472657373000000000000000000000000000000000000000000000000000000602082015250565b60006118766025836110a4565b91506118818261181a565b604082019050919050565b600060208201905081810360008301526118a581611869565b9050919050565b7f45524332303a207472616e7366657220746f20746865207a65726f206164647260008201527f6573730000000000000000000000000000000000000000000000000000000000602082015250565b60006119086023836110a4565b9150611913826118ac565b604082019050919050565b60006020820190508181036000830152611937816118fb565b9050919050565b7f45524332303a207472616e7366657220616d6f756e742065786365656473206260008201527f616c616e63650000000000000000000000000000000000000000000000000000602082015250565b600061199a6026836110a4565b91506119a58261193e565b604082019050919050565b600060208201905081810360008301526119c98161198d565b905091905056fea2646970667358221220114a136d854425b597971c3d2905b23bb7ff29b833cd89fe879de2aac41c6f1864736f6c63430008140033a2646970667358221220e98d6c98663a368f289b98f1f97925f21cce162ff63fd0f49bf668dd9714d45464736f6c63430008140033",
  "linkReferences": {},
  "deployedLinkReferences": {}
}