{
  "_format": "hh-sol-artifact-1",
  "contractName": "MidasShrapDummyToken",
  "sourceName": "contracts/07_math_error_farmingContract.sol",
  "abi": [
    {
      "inputs": [],
      "stateMutability": "nonpayable",
      "type": "constructor"
    },
    {
      "anonymous": false,
      "inputs": [
        {
          "indexed": true,
          "internalType": "address",
          "name": "owner",
          "type": "address"
        },
        {
          "indexed": true,
          "internalType": "address",
          "name": "spender",
          "type": "address"
        },
        {
          "indexed": false,
          "internalType": "uint256",
          "name": "value",
          "type": "uint256"
        }
      ],
      "name": "Approval",
      "type": "event"
    },
    {
      "anonymous": false,
      "inputs": [
        {
          "indexed": true,
          "internalType": "address",
          "name": "previousOwner",
          "type": "address"
        },
        {
          "indexed": true,
          "internalType": "address",
          "name": "newOwner",
          "type": "address"
        }
      ],
      "name": "OwnershipTransferred",
      "type": "event"
    },
    {
      "anonymous": false,
      "inputs": [
        {
          "indexed": true,
          "internalType": "address",
          "name": "from",
          "type": "address"
        },
        {
          "indexed": true,
          "internalType": "address",
          "name": "to",
          "type": "address"
        },
        {
          "indexed": false,
          "internalType": "uint256",
          "name": "value",
          "type": "uint256"
        }
      ],
      "name": "Transfer",
      "type": "event"
    },
    {
      "inputs": [
        {
          "internalType": "address",
          "name": "owner",
          "type": "address"
        },
        {
          "internalType": "address",
          "name": "spender",
          "type": "address"
        }
      ],
      "name": "allowance",
      "outputs": [
        {
          "internalType": "uint256",
          "name": "",
          "type": "uint256"
        }
      ],
      "stateMutability": "view",
      "type": "function"
    },
    {
      "inputs": [
        {
          "internalType": "address",
          "name": "spender",
          "type": "address"
        },
        {
          "internalType": "uint256",
          "name": "amount",
          "type": "uint256"
        }
      ],
      "name": "approve",
      "outputs": [
        {
          "internalType": "bool",
          "name": "",
          "type": "bool"
        }
      ],
      "stateMutability": "nonpayable",
      "type": "function"
    },
    {
      "inputs": [
        {
          "internalType": "address",
          "name": "account",
          "type": "address"
        }
      ],
      "name": "balanceOf",
      "outputs": [
        {
          "internalType": "uint256",
          "name": "",
          "type": "uint256"
        }
      ],
      "stateMutability": "view",
      "type": "function"
    },
    {
      "inputs": [],
      "name": "decimals",
      "outputs": [
        {
          "internalType": "uint8",
          "name": "",
          "type": "uint8"
        }
      ],
      "stateMutability": "view",
      "type": "function"
    },
    {
      "inputs": [
        {
          "internalType": "address",
          "name": "spender",
          "type": "address"
        },
        {
          "internalType": "uint256",
          "name": "subtractedValue",
          "type": "uint256"
        }
      ],
      "name": "decreaseAllowance",
      "outputs": [
        {
          "internalType": "bool",
          "name": "",
          "type": "bool"
        }
      ],
      "stateMutability": "nonpayable",
      "type": "function"
    },
    {
      "inputs": [
        {
          "internalType": "address",
          "name": "spender",
          "type": "address"
        },
        {
          "internalType": "uint256",
          "name": "addedValue",
          "type": "uint256"
        }
      ],
      "name": "increaseAllowance",
      "outputs": [
        {
          "internalType": "bool",
          "name": "",
          "type": "bool"
        }
      ],
      "stateMutability": "nonpayable",
      "type": "function"
    },
    {
      "inputs": [],
      "name": "mint",
      "outputs": [],
      "stateMutability": "nonpayable",
      "type": "function"
    },
    {
      "inputs": [],
      "name": "name",
      "outputs": [
        {
          "internalType": "string",
          "name": "",
          "type": "string"
        }
      ],
      "stateMutability": "view",
      "type": "function"
    },
    {
      "inputs": [],
      "name": "owner",
      "outputs": [
        {
          "internalType": "address",
          "name": "",
          "type": "address"
        }
      ],
      "stateMutability": "view",
      "type": "function"
    },
    {
      "inputs": [],
      "name": "renounceOwnership",
      "outputs": [],
      "stateMutability": "nonpayable",
      "type": "function"
    },
    {
      "inputs": [],
      "name": "symbol",
      "outputs": [
        {
          "internalType": "string",
          "name": "",
          "type": "string"
        }
      ],
      "stateMutability": "view",
      "type": "function"
    },
    {
      "inputs": [],
      "name": "totalSupply",
      "outputs": [
        {
          "internalType": "uint256",
          "name": "",
          "type": "uint256"
        }
      ],
      "stateMutability": "view",
      "type": "function"
    },
    {
      "inputs": [
        {
          "internalType": "address",
          "name": "recipient",
          "type": "address"
        },
        {
          "internalType": "uint256",
          "name": "amount",
          "type": "uint256"
        }
      ],
      "name": "transfer",
      "outputs": [
        {
          "internalType": "bool",
          "name": "",
          "type": "bool"
        }
      ],
      "stateMutability": "nonpayable",
      "type": "function"
    },
    {
      "inputs": [
        {
          "internalType": "address",
          "name": "sender",
          "type": "address"
        },
        {
          "internalType": "address",
          "name": "recipient",
          "type": "address"
        },
        {
          "internalType": "uint256",
          "name": "amount",
          "type": "uint256"
        }
      ],
      "name": "transferFrom",
      "outputs": [
        {
          "internalType": "bool",
          "name": "",
          "type": "bool"
        }
      ],
      "stateMutability": "nonpayable",
      "type": "function"
    },
    {
      "inputs": [
        {
          "internalType": "address",
          "name": "newOwner",
          "type": "address"
        }
      ],
      "name": "transferOwnership",
      "outputs": [],
      "stateMutability": "nonpayable",
      "type": "function"
    }
  ],
  "bytecode": "0x60806040523480156200001157600080fd5b506040518060400160405280601481526020017f4d69646173536872617044756d6d79546f6b656e0000000000000000000000008152506040518060400160405280601481526020017f4d69646173536872617044756d6d79546f6b656e00000000000000000000000081525081600390816200008f919062000412565b508060049081620000a1919062000412565b505050620000c4620000b8620000ca60201b60201c565b620000d260201b60201c565b620004f9565b600033905090565b6000600560009054906101000a900473ffffffffffffffffffffffffffffffffffffffff16905081600560006101000a81548173ffffffffffffffffffffffffffffffffffffffff021916908373ffffffffffffffffffffffffffffffffffffffff1602179055508173ffffffffffffffffffffffffffffffffffffffff168173ffffffffffffffffffffffffffffffffffffffff167f8be0079c531659141344cd1fd0a4f28419497f9722a3daafe3b4186f6b6457e060405160405180910390a35050565b600081519050919050565b7f4e487b7100000000000000000000000000000000000000000000000000000000600052604160045260246000fd5b7f4e487b7100000000000000000000000000000000000000000000000000000000600052602260045260246000fd5b600060028204905060018216806200021a57607f821691505b60208210810362000230576200022f620001d2565b5b50919050565b60008190508160005260206000209050919050565b60006020601f8301049050919050565b600082821b905092915050565b6000600883026200029a7fffffffffffffffffffffffffffffffffffffffffffffffffffffffffffffffff826200025b565b620002a686836200025b565b95508019841693508086168417925050509392505050565b6000819050919050565b6000819050919050565b6000620002f3620002ed620002e784620002be565b620002c8565b620002be565b9050919050565b6000819050919050565b6200030f83620002d2565b620003276200031e82620002fa565b84845462000268565b825550505050565b600090565b6200033e6200032f565b6200034b81848462000304565b505050565b5b8181101562000373576200036760008262000334565b60018101905062000351565b5050565b601f821115620003c2576200038c8162000236565b62000397846200024b565b81016020851015620003a7578190505b620003bf620003b6856200024b565b83018262000350565b50505b505050565b600082821c905092915050565b6000620003e760001984600802620003c7565b1980831691505092915050565b6000620004028383620003d4565b9150826002028217905092915050565b6200041d8262000198565b67ffffffffffffffff811115620004395762000438620001a3565b5b62000445825462000201565b6200045282828562000377565b600060209050601f8311600181146200048a576000841562000475578287015190505b620004818582620003f4565b865550620004f1565b601f1984166200049a8662000236565b60005b82811015620004c4578489015182556001820191506020850194506020810190506200049d565b86831015620004e45784890151620004e0601f891682620003d4565b8355505b6001600288020188555050505b505050505050565b611a0680620005096000396000f3fe608060405234801561001057600080fd5b50600436106100f55760003560e01c806370a0823111610097578063a457c2d711610066578063a457c2d714610264578063a9059cbb14610294578063dd62ed3e146102c4578063f2fde38b146102f4576100f5565b806370a08231146101ee578063715018a61461021e5780638da5cb5b1461022857806395d89b4114610246576100f5565b806318160ddd116100d357806318160ddd1461015257806323b872dd14610170578063313ce567146101a057806339509351146101be576100f5565b806306fdde03146100fa578063095ea7b3146101185780631249c58b14610148575b600080fd5b610102610310565b60405161010f9190611129565b60405180910390f35b610132600480360381019061012d91906111e4565b6103a2565b60405161013f919061123f565b60405180910390f35b6101506103c0565b005b61015a610450565b6040516101679190611269565b60405180910390f35b61018a60048036038101906101859190611284565b61045a565b604051610197919061123f565b60405180910390f35b6101a8610552565b6040516101b591906112f3565b60405180910390f35b6101d860048036038101906101d391906111e4565b61055b565b6040516101e5919061123f565b60405180910390f35b6102086004803603810190610203919061130e565b610607565b6040516102159190611269565b60405180910390f35b61022661064f565b005b6102306106d7565b60405161023d919061134a565b60405180910390f35b61024e610701565b60405161025b9190611129565b60405180910390f35b61027e600480360381019061027991906111e4565b610793565b60405161028b919061123f565b60405180910390f35b6102ae60048036038101906102a991906111e4565b61087e565b6040516102bb919061123f565b60405180910390f35b6102de60048036038101906102d99190611365565b61089c565b6040516102eb9190611269565b60405180910390f35b61030e6004803603810190610309919061130e565b610923565b005b60606003805461031f906113d4565b80601f016020809104026020016040519081016040528092919081815260200182805461034b906113d4565b80156103985780601f1061036d57610100808354040283529160200191610398565b820191906000526020600020905b81548152906001019060200180831161037b57829003601f168201915b5050505050905090565b60006103b66103af610a1a565b8484610a22565b6001905092915050565b6103c8610a1a565b73ffffffffffffffffffffffffffffffffffffffff166103e66106d7565b73ffffffffffffffffffffffffffffffffffffffff161461043c576040517f08c379a000000000000000000000000000000000000000000000000000000000815260040161043390611451565b60405180910390fd5b61044e33670de0b6b3a7640000610beb565b565b6000600254905090565b6000610467848484610d4a565b6000600160008673ffffffffffffffffffffffffffffffffffffffff1673ffffffffffffffffffffffffffffffffffffffff16815260200190815260200160002060006104b2610a1a565b73ffffffffffffffffffffffffffffffffffffffff1673ffffffffffffffffffffffffffffffffffffffff16815260200190815260200160002054905082811015610532576040517f08c379a0000000000000000000000000000000000000000000000000000000008152600401610529906114e3565b60405180910390fd5b6105468561053e610a1a565b858403610a22565b60019150509392505050565b60006012905090565b60006105fd610568610a1a565b848460016000610576610a1a565b73ffffffffffffffffffffffffffffffffffffffff1673ffffffffffffffffffffffffffffffffffffffff16815260200190815260200160002060008873ffffffffffffffffffffffffffffffffffffffff1673ffffffffffffffffffffffffffffffffffffffff168152602001908152602001600020546105f89190611532565b610a22565b6001905092915050565b60008060008373ffffffffffffffffffffffffffffffffffffffff1673ffffffffffffffffffffffffffffffffffffffff168152602001908152602001600020549050919050565b610657610a1a565b73ffffffffffffffffffffffffffffffffffffffff166106756106d7565b73ffffffffffffffffffffffffffffffffffffffff16146106cb576040517f08c379a00000000000000000000000000000000000000000000000000000000081526004016106c290611451565b60405180910390fd5b6106d56000610fc9565b565b6000600560009054906101000a900473ffffffffffffffffffffffffffffffffffffffff16905090565b606060048054610710906113d4565b80601f016020809104026020016040519081016040528092919081815260200182805461073c906113d4565b80156107895780601f1061075e57610100808354040283529160200191610789565b820191906000526020600020905b81548152906001019060200180831161076c57829003601f168201915b5050505050905090565b600080600160006107a2610a1a565b73ffffffffffffffffffffffffffffffffffffffff1673ffffffffffffffffffffffffffffffffffffffff16815260200190815260200160002060008573ffffffffffffffffffffffffffffffffffffffff1673ffffffffffffffffffffffffffffffffffffffff1681526020019081526020016000205490508281101561085f576040517f08c379a0000000000000000000000000000000000000000000000000000000008152600401610856906115d8565b60405180910390fd5b61087361086a610a1a565b85858403610a22565b600191505092915050565b600061089261088b610a1a565b8484610d4a565b6001905092915050565b6000600160008473ffffffffffffffffffffffffffffffffffffffff1673ffffffffffffffffffffffffffffffffffffffff16815260200190815260200160002060008373ffffffffffffffffffffffffffffffffffffffff1673ffffffffffffffffffffffffffffffffffffffff16815260200190815260200160002054905092915050565b61092b610a1a565b73ffffffffffffffffffffffffffffffffffffffff166109496106d7565b73ffffffffffffffffffffffffffffffffffffffff161461099f576040517f08c379a000000000000000000000000000000000000000000000000000000000815260040161099690611451565b60405180910390fd5b600073ffffffffffffffffffffffffffffffffffffffff168173ffffffffffffffffffffffffffffffffffffffff1603610a0e576040517f08c379a0000000000000000000000000000000000000000000000000000000008152600401610a059061166a565b60405180910390fd5b610a1781610fc9565b50565b600033905090565b600073ffffffffffffffffffffffffffffffffffffffff168373ffffffffffffffffffffffffffffffffffffffff1603610a91576040517f08c379a0000000000000000000000000000000000000000000000000000000008152600401610a88906116fc565b60405180910390fd5b600073ffffffffffffffffffffffffffffffffffffffff168273ffffffffffffffffffffffffffffffffffffffff1603610b00576040517f08c379a0000000000000000000000000000000000000000000000000000000008152600401610af79061178e565b60405180910390fd5b80600160008573ffffffffffffffffffffffffffffffffffffffff1673ffffffffffffffffffffffffffffffffffffffff16815260200190815260200160002060008473ffffffffffffffffffffffffffffffffffffffff1673ffffffffffffffffffffffffffffffffffffffff168152602001908152602001600020819055508173ffffffffffffffffffffffffffffffffffffffff168373ffffffffffffffffffffffffffffffffffffffff167f8c5be1e5ebec7d5bd14f71427d1e84f3dd0314c0f7b2291e5b200ac8c7c3b92583604051610bde9190611269565b60405180910390a3505050565b600073ffffffffffffffffffffffffffffffffffffffff168273ffffffffffffffffffffffffffffffffffffffff1603610c5a576040517f08c379a0000000000000000000000000000000000000000000000000000000008152600401610c51906117fa565b60405180910390fd5b610c666000838361108f565b8060026000828254610c789190611532565b92505081905550806000808473ffffffffffffffffffffffffffffffffffffffff1673ffffffffffffffffffffffffffffffffffffffff1681526020019081526020016000206000828254610ccd9190611532565b925050819055508173ffffffffffffffffffffffffffffffffffffffff16600073ffffffffffffffffffffffffffffffffffffffff167fddf252ad1be2c89b69c2b068fc378daa952ba7f163c4a11628f55a4df523b3ef83604051610d329190611269565b60405180910390a3610d4660008383611094565b5050565b600073ffffffffffffffffffffffffffffffffffffffff168373ffffffffffffffffffffffffffffffffffffffff1603610db9576040517f08c379a0000000000000000000000000000000000000000000000000000000008152600401610db09061188c565b60405180910390fd5b600073ffffffffffffffffffffffffffffffffffffffff168273ffffffffffffffffffffffffffffffffffffffff1603610e28576040517f08c379a0000000000000000000000000000000000000000000000000000000008152600401610e1f9061191e565b60405180910390fd5b610e3383838361108f565b60008060008573ffffffffffffffffffffffffffffffffffffffff1673ffffffffffffffffffffffffffffffffffffffff16815260200190815260200160002054905081811015610eb9576040517f08c379a0000000000000000000000000000000000000000000000000000000008152600401610eb0906119b0565b60405180910390fd5b8181036000808673ffffffffffffffffffffffffffffffffffffffff1673ffffffffffffffffffffffffffffffffffffffff16815260200190815260200160002081905550816000808573ffffffffffffffffffffffffffffffffffffffff1673ffffffffffffffffffffffffffffffffffffffff1681526020019081526020016000206000828254610f4c9190611532565b925050819055508273ffffffffffffffffffffffffffffffffffffffff168473ffffffffffffffffffffffffffffffffffffffff167fddf252ad1be2c89b69c2b068fc378daa952ba7f163c4a11628f55a4df523b3ef84604051610fb09190611269565b60405180910390a3610fc3848484611094565b50505050565b6000600560009054906101000a900473ffffffffffffffffffffffffffffffffffffffff16905081600560006101000a81548173ffffffffffffffffffffffffffffffffffffffff021916908373ffffffffffffffffffffffffffffffffffffffff1602179055508173ffffffffffffffffffffffffffffffffffffffff168173ffffffffffffffffffffffffffffffffffffffff167f8be0079c531659141344cd1fd0a4f28419497f9722a3daafe3b4186f6b6457e060405160405180910390a35050565b505050565b505050565b600081519050919050565b600082825260208201905092915050565b60005b838110156110d35780820151818401526020810190506110b8565b60008484015250505050565b6000601f19601f8301169050919050565b60006110fb82611099565b61110581856110a4565b93506111158185602086016110b5565b61111e816110df565b840191505092915050565b6000602082019050818103600083015261114381846110f0565b905092915050565b600080fd5b600073ffffffffffffffffffffffffffffffffffffffff82169050919050565b600061117b82611150565b9050919050565b61118b81611170565b811461119657600080fd5b50565b6000813590506111a881611182565b92915050565b6000819050919050565b6111c1816111ae565b81146111cc57600080fd5b50565b6000813590506111de816111b8565b92915050565b600080604083850312156111fb576111fa61114b565b5b600061120985828601611199565b925050602061121a858286016111cf565b9150509250929050565b60008115159050919050565b61123981611224565b82525050565b60006020820190506112546000830184611230565b92915050565b611263816111ae565b82525050565b600060208201905061127e600083018461125a565b92915050565b60008060006060848603121561129d5761129c61114b565b5b60006112ab86828701611199565b93505060206112bc86828701611199565b92505060406112cd868287016111cf565b9150509250925092565b600060ff82169050919050565b6112ed816112d7565b82525050565b600060208201905061130860008301846112e4565b92915050565b6000602082840312156113245761132361114b565b5b600061133284828501611199565b91505092915050565b61134481611170565b82525050565b600060208201905061135f600083018461133b565b92915050565b6000806040838503121561137c5761137b61114b565b5b600061138a85828601611199565b925050602061139b85828601611199565b9150509250929050565b7f4e487b7100000000000000000000000000000000000000000000000000000000600052602260045260246000fd5b600060028204905060018216806113ec57607f821691505b6020821081036113ff576113fe6113a5565b5b50919050565b7f4f776e61626c653a2063616c6c6572206973206e6f7420746865206f776e6572600082015250565b600061143b6020836110a4565b915061144682611405565b602082019050919050565b6000602082019050818103600083015261146a8161142e565b9050919050565b7f45524332303a207472616e7366657220616d6f756e742065786365656473206160008201527f6c6c6f77616e6365000000000000000000000000000000000000000000000000602082015250565b60006114cd6028836110a4565b91506114d882611471565b604082019050919050565b600060208201905081810360008301526114fc816114c0565b9050919050565b7f4e487b7100000000000000000000000000000000000000000000000000000000600052601160045260246000fd5b600061153d826111ae565b9150611548836111ae565b92508282019050808211156115605761155f611503565b5b92915050565b7f45524332303a2064656372656173656420616c6c6f77616e63652062656c6f7760008201527f207a65726f000000000000000000000000000000000000000000000000000000602082015250565b60006115c26025836110a4565b91506115cd82611566565b604082019050919050565b600060208201905081810360008301526115f1816115b5565b9050919050565b7f4f776e61626c653a206e6577206f776e657220697320746865207a65726f206160008201527f6464726573730000000000000000000000000000000000000000000000000000602082015250565b60006116546026836110a4565b915061165f826115f8565b604082019050919050565b6000602082019050818103600083015261168381611647565b9050919050565b7f45524332303a20617070726f76652066726f6d20746865207a65726f2061646460008201527f7265737300000000000000000000000000000000000000000000000000000000602082015250565b60006116e66024836110a4565b91506116f18261168a565b604082019050919050565b60006020820190508181036000830152611715816116d9565b9050919050565b7f45524332303a20617070726f766520746f20746865207a65726f20616464726560008201527f7373000000000000000000000000000000000000000000000000000000000000602082015250565b60006117786022836110a4565b91506117838261171c565b604082019050919050565b600060208201905081810360008301526117a78161176b565b9050919050565b7f45524332303a206d696e7420746f20746865207a65726f206164647265737300600082015250565b60006117e4601f836110a4565b91506117ef826117ae565b602082019050919050565b60006020820190508181036000830152611813816117d7565b9050919050565b7f45524332303a207472616e736665722066726f6d20746865207a65726f20616460008201527f6472657373000000000000000000000000000000000000000000000000000000602082015250565b60006118766025836110a4565b91506118818261181a565b604082019050919050565b600060208201905081810360008301526118a581611869565b9050919050565b7f45524332303a207472616e7366657220746f20746865207a65726f206164647260008201527f6573730000000000000000000000000000000000000000000000000000000000602082015250565b60006119086023836110a4565b9150611913826118ac565b604082019050919050565b60006020820190508181036000830152611937816118fb565b9050919050565b7f45524332303a207472616e7366657220616d6f756e742065786365656473206260008201527f616c616e63650000000000000000000000000000000000000000000000000000602082015250565b600061199a6026836110a4565b91506119a58261193e565b604082019050919050565b600060208201905081810360008301526119c98161198d565b905091905056fea2646970667358221220114a136d854425b597971c3d2905b23bb7ff29b833cd89fe879de2aac41c6f1864736f6c63430008140033",
  "linkReferences": {},
  "deployedLinkReferences": {}
}