{
  "_format": "hh-sol-artifact-1",
  "contractName": "HackMe",
  "sourceName": "contracts/10_delegate_call_2.sol",
  "abi": [
    {
      "inputs": [
        {
          "internalType": "address",
          "name": "_lib",
          "type": "address"
        }
      ],
      "stateMutability": "nonpayable",
      "type": "constructor"
    },
    {
      "inputs": [
        {
          "internalType": "uint256",
          "name": "_num",
          "type": "uint256"
        }
      ],
      "name": "doSomething",
      "outputs": [],
      "stateMutability": "nonpayable",
      "type": "function"
    },
    {
      "inputs": [],
      "name": "lib",
      "outputs": [
        {
          "internalType": "address",
          "name": "",
          "type": "address"
        }
      ],
      "stateMutability": "view",
      "type": "function"
    },
    {
      "inputs": [],
      "name": "owner",
      "outputs": [
        {
          "internalType": "address",
          "name": "",
          "type": "address"
        }
      ],
      "stateMutability": "view",
      "type": "function"
    },
    {
      "inputs": [],
      "name": "someNumber",
      "outputs": [
        {
          "internalType": "uint256",
          "name": "",
          "type": "uint256"
        }
      ],
      "stateMutability": "view",
      "type": "function"
    }
  ],
  "bytecode": "0x608060405234801561001057600080fd5b506040516105333803806105338339818101604052810190610032919061011c565b806000806101000a81548173ffffffffffffffffffffffffffffffffffffffff021916908373ffffffffffffffffffffffffffffffffffffffff16021790555033600160006101000a81548173ffffffffffffffffffffffffffffffffffffffff021916908373ffffffffffffffffffffffffffffffffffffffff16021790555050610149565b600080fd5b600073ffffffffffffffffffffffffffffffffffffffff82169050919050565b60006100e9826100be565b9050919050565b6100f9816100de565b811461010457600080fd5b50565b600081519050610116816100f0565b92915050565b600060208284031215610132576101316100b9565b5b600061014084828501610107565b91505092915050565b6103db806101586000396000f3fe608060405234801561001057600080fd5b506004361061004c5760003560e01c80638da5cb5b14610051578063928012301461006f578063931c9b991461008d578063a6b206bf146100ab575b600080fd5b6100596100c7565b6040516100669190610270565b60405180910390f35b6100776100ed565b6040516100849190610270565b60405180910390f35b610095610111565b6040516100a291906102a4565b60405180910390f35b6100c560048036038101906100c091906102f0565b610117565b005b600160009054906101000a900473ffffffffffffffffffffffffffffffffffffffff1681565b60008054906101000a900473ffffffffffffffffffffffffffffffffffffffff1681565b60025481565b60008054906101000a900473ffffffffffffffffffffffffffffffffffffffff1673ffffffffffffffffffffffffffffffffffffffff168160405160240161015f91906102a4565b6040516020818303038152906040527fa6b206bf000000000000000000000000000000000000000000000000000000007bffffffffffffffffffffffffffffffffffffffffffffffffffffffff19166020820180517bffffffffffffffffffffffffffffffffffffffffffffffffffffffff83818316178352505050506040516101e9919061038e565b600060405180830381855af49150503d8060008114610224576040519150601f19603f3d011682016040523d82523d6000602084013e610229565b606091505b50505050565b600073ffffffffffffffffffffffffffffffffffffffff82169050919050565b600061025a8261022f565b9050919050565b61026a8161024f565b82525050565b60006020820190506102856000830184610261565b92915050565b6000819050919050565b61029e8161028b565b82525050565b60006020820190506102b96000830184610295565b92915050565b600080fd5b6102cd8161028b565b81146102d857600080fd5b50565b6000813590506102ea816102c4565b92915050565b600060208284031215610306576103056102bf565b5b6000610314848285016102db565b91505092915050565b600081519050919050565b600081905092915050565b60005b83811015610351578082015181840152602081019050610336565b60008484015250505050565b60006103688261031d565b6103728185610328565b9350610382818560208601610333565b80840191505092915050565b600061039a828461035d565b91508190509291505056fea26469706673582212206feb2f01c58c6a5d554cd9d3b238ffda5d8fc6c4d57493602b62fb643e98827364736f6c63430008140033",
  "linkReferences": {},
  "deployedLinkReferences": {}
}