{"contracts/01_signature_replay.sol":{"MultiSigWallet":{"abi":[{"inputs":[{"internalType":"address[2]","name":"_owners","type":"address[2]"}],"stateMutability":"payable","type":"constructor"},{"inputs":[],"name":"ECDSAInvalidSignature","type":"error"},{"inputs":[{"internalType":"uint256","name":"length","type":"uint256"}],"name":"ECDSAInvalidSignatureLength","type":"error"},{"inputs":[{"internalType":"bytes32","name":"s","type":"bytes32"}],"name":"ECDSAInvalidSignatureS","type":"error"},{"inputs":[],"name":"deposit","outputs":[],"stateMutability":"payable","type":"function"},{"inputs":[{"internalType":"address","name":"_to","type":"address"},{"internalType":"uint256","name":"_amount","type":"uint256"}],"name":"getTxHash","outputs":[{"internalType":"bytes32","name":"","type":"bytes32"}],"stateMutability":"pure","type":"function"},{"inputs":[{"internalType":"uint256","name":"","type":"uint256"}],"name":"owners","outputs":[{"internalType":"address","name":"","type":"address"}],"stateMutability":"view","type":"function"},{"inputs":[{"internalType":"address","name":"_to","type":"address"},{"internalType":"uint256","name":"_amount","type":"uint256"},{"internalType":"bytes[2]","name":"_sigs","type":"bytes[2]"}],"name":"transfer","outputs":[],"stateMutability":"nonpayable","type":"function"}],"evm":{"bytecode":{"linkReferences":{},"object":"6080604052604051620010b3380380620010b38339818101604052810190620000299190620002bc565b8060009060026200003c92919062000044565b5050620002ee565b8260028101928215620000b3579160200282015b82811115620000b25782518260006101000a81548173ffffffffffffffffffffffffffffffffffffffff021916908373ffffffffffffffffffffffffffffffffffffffff1602179055509160200191906001019062000058565b5b509050620000c29190620000c6565b5090565b5b80821115620000e1576000816000905550600101620000c7565b5090565b6000604051905090565b600080fd5b600080fd5b6000601f19601f8301169050919050565b7f4e487b7100000000000000000000000000000000000000000000000000000000600052604160045260246000fd5b6200014482620000f9565b810181811067ffffffffffffffff821117156200016657620001656200010a565b5b80604052505050565b60006200017b620000e5565b905062000189828262000139565b919050565b600067ffffffffffffffff821115620001ac57620001ab6200010a565b5b602082029050919050565b600080fd5b600073ffffffffffffffffffffffffffffffffffffffff82169050919050565b6000620001e982620001bc565b9050919050565b620001fb81620001dc565b81146200020757600080fd5b50565b6000815190506200021b81620001f0565b92915050565b60006200023862000232846200018e565b6200016f565b90508060208402830185811115620002555762000254620001b7565b5b835b818110156200028257806200026d88826200020a565b84526020840193505060208101905062000257565b5050509392505050565b600082601f830112620002a457620002a3620000f4565b5b6002620002b384828562000221565b91505092915050565b600060408284031215620002d557620002d4620000ef565b5b6000620002e5848285016200028c565b91505092915050565b610db580620002fe6000396000f3fe60806040526004361061003f5760003560e01c8063025e7c27146100445780639a4b740b14610081578063d0e30db0146100be578063ffb485b8146100c8575b600080fd5b34801561005057600080fd5b5061006b600480360381019061006691906106a9565b6100f1565b6040516100789190610717565b60405180910390f35b34801561008d57600080fd5b506100a860048036038101906100a3919061075e565b610127565b6040516100b591906107b7565b60405180910390f35b6100c661015a565b005b3480156100d457600080fd5b506100ef60048036038101906100ea91906109ec565b61015c565b005b6000816002811061010157600080fd5b016000915054906101000a900473ffffffffffffffffffffffffffffffffffffffff1681565b6000828260405160200161013c929190610ac4565b60405160208183030381529060405280519060200120905092915050565b565b60006101688484610127565b90506101748282610266565b6101b3576040517f08c379a00000000000000000000000000000000000000000000000000000000081526004016101aa90610b4d565b60405180910390fd5b60008473ffffffffffffffffffffffffffffffffffffffff16846040516101d990610b9e565b60006040518083038185875af1925050503d8060008114610216576040519150601f19603f3d011682016040523d82523d6000602084013e61021b565b606091505b505090508061025f576040517f08c379a000000000000000000000000000000000000000000000000000000000815260040161025690610bff565b60405180910390fd5b5050505050565b60008061027283610349565b905060005b600281101561033c5760006102ac86836002811061029857610297610c1f565b5b60200201518461037f90919063ffffffff16565b905060008083600281106102c3576102c2610c1f565b5b0160009054906101000a900473ffffffffffffffffffffffffffffffffffffffff1673ffffffffffffffffffffffffffffffffffffffff168273ffffffffffffffffffffffffffffffffffffffff1614905080610327576000945050505050610343565b5050808061033490610c7d565b915050610277565b5060019150505b92915050565b60007f19457468657265756d205369676e6564204d6573736167653a0a33320000000060005281601c52603c6000209050919050565b60008060008061038f86866103ab565b92509250925061039f8282610407565b82935050505092915050565b600080600060418451036103f05760008060006020870151925060408701519150606087015160001a90506103e28882858561056b565b955095509550505050610400565b60006002855160001b9250925092505b9250925092565b6000600381111561041b5761041a610cc5565b5b82600381111561042e5761042d610cc5565b5b0315610567576001600381111561044857610447610cc5565b5b82600381111561045b5761045a610cc5565b5b03610492576040517ff645eedf00000000000000000000000000000000000000000000000000000000815260040160405180910390fd5b600260038111156104a6576104a5610cc5565b5b8260038111156104b9576104b8610cc5565b5b036104fe578060001c6040517ffce698f70000000000000000000000000000000000000000000000000000000081526004016104f59190610d03565b60405180910390fd5b60038081111561051157610510610cc5565b5b82600381111561052457610523610cc5565b5b0361056657806040517fd78bce0c00000000000000000000000000000000000000000000000000000000815260040161055d91906107b7565b60405180910390fd5b5b5050565b60008060007f7fffffffffffffffffffffffffffffff5d576e7357a4501ddfe92f46681b20a08460001c11156105ab576000600385925092509250610655565b6000600188888888604051600081526020016040526040516105d09493929190610d3a565b6020604051602081039080840390855afa1580156105f2573d6000803e3d6000fd5b505050602060405103519050600073ffffffffffffffffffffffffffffffffffffffff168173ffffffffffffffffffffffffffffffffffffffff160361064657600060016000801b93509350935050610655565b8060008060001b935093509350505b9450945094915050565b6000604051905090565b600080fd5b600080fd5b6000819050919050565b61068681610673565b811461069157600080fd5b50565b6000813590506106a38161067d565b92915050565b6000602082840312156106bf576106be610669565b5b60006106cd84828501610694565b91505092915050565b600073ffffffffffffffffffffffffffffffffffffffff82169050919050565b6000610701826106d6565b9050919050565b610711816106f6565b82525050565b600060208201905061072c6000830184610708565b92915050565b61073b816106f6565b811461074657600080fd5b50565b60008135905061075881610732565b92915050565b6000806040838503121561077557610774610669565b5b600061078385828601610749565b925050602061079485828601610694565b9150509250929050565b6000819050919050565b6107b18161079e565b82525050565b60006020820190506107cc60008301846107a8565b92915050565b600080fd5b6000601f19601f8301169050919050565b7f4e487b7100000000000000000000000000000000000000000000000000000000600052604160045260246000fd5b610820826107d7565b810181811067ffffffffffffffff8211171561083f5761083e6107e8565b5b80604052505050565b600061085261065f565b905061085e8282610817565b919050565b600067ffffffffffffffff82111561087e5761087d6107e8565b5b602082029050919050565b600080fd5b600080fd5b600067ffffffffffffffff8211156108ae576108ad6107e8565b5b6108b7826107d7565b9050602081019050919050565b82818337600083830152505050565b60006108e66108e184610893565b610848565b9050828152602081018484840111156109025761090161088e565b5b61090d8482856108c4565b509392505050565b600082601f83011261092a576109296107d2565b5b813561093a8482602086016108d3565b91505092915050565b600061095661095184610863565b610848565b905080602084028301858111156109705761096f610889565b5b835b818110156109b757803567ffffffffffffffff811115610995576109946107d2565b5b8086016109a28982610915565b85526020850194505050602081019050610972565b5050509392505050565b600082601f8301126109d6576109d56107d2565b5b60026109e3848285610943565b91505092915050565b600080600060608486031215610a0557610a04610669565b5b6000610a1386828701610749565b9350506020610a2486828701610694565b925050604084013567ffffffffffffffff811115610a4557610a4461066e565b5b610a51868287016109c1565b9150509250925092565b60008160601b9050919050565b6000610a7382610a5b565b9050919050565b6000610a8582610a68565b9050919050565b610a9d610a98826106f6565b610a7a565b82525050565b6000819050919050565b610abe610ab982610673565b610aa3565b82525050565b6000610ad08285610a8c565b601482019150610ae08284610aad565b6020820191508190509392505050565b600082825260208201905092915050565b7f696e76616c696420736967000000000000000000000000000000000000000000600082015250565b6000610b37600b83610af0565b9150610b4282610b01565b602082019050919050565b60006020820190508181036000830152610b6681610b2a565b9050919050565b600081905092915050565b50565b6000610b88600083610b6d565b9150610b9382610b78565b600082019050919050565b6000610ba982610b7b565b9150819050919050565b7f4661696c656420746f2073656e64204574686572000000000000000000000000600082015250565b6000610be9601483610af0565b9150610bf482610bb3565b602082019050919050565b60006020820190508181036000830152610c1881610bdc565b9050919050565b7f4e487b7100000000000000000000000000000000000000000000000000000000600052603260045260246000fd5b7f4e487b7100000000000000000000000000000000000000000000000000000000600052601160045260246000fd5b6000610c8882610673565b91507fffffffffffffffffffffffffffffffffffffffffffffffffffffffffffffffff8203610cba57610cb9610c4e565b5b600182019050919050565b7f4e487b7100000000000000000000000000000000000000000000000000000000600052602160045260246000fd5b610cfd81610673565b82525050565b6000602082019050610d186000830184610cf4565b92915050565b600060ff82169050919050565b610d3481610d1e565b82525050565b6000608082019050610d4f60008301876107a8565b610d5c6020830186610d2b565b610d6960408301856107a8565b610d7660608301846107a8565b9594505050505056fea264697066735822122084664d27ec80ef41c11204160576bc744995f73461e039bd3e39474077bc638064736f6c63430008140033","opcodes":"PUSH1 0x80 PUSH1 0x40 MSTORE PUSH1 0x40 MLOAD PUSH3 0x10B3 CODESIZE SUB DUP1 PUSH3 0x10B3 DUP4 CODECOPY DUP2 DUP2 ADD PUSH1 0x40 MSTORE DUP2 ADD SWAP1 PUSH3 0x29 SWAP2 SWAP1 PUSH3 0x2BC JUMP JUMPDEST DUP1 PUSH1 0x0 SWAP1 PUSH1 0x2 PUSH3 0x3C SWAP3 SWAP2 SWAP1 PUSH3 0x44 JUMP JUMPDEST POP POP PUSH3 0x2EE JUMP JUMPDEST DUP3 PUSH1 0x2 DUP2 ADD SWAP3 DUP3 ISZERO PUSH3 0xB3 JUMPI SWAP2 PUSH1 0x20 MUL DUP3 ADD JUMPDEST DUP3 DUP2 GT ISZERO PUSH3 0xB2 JUMPI DUP3 MLOAD DUP3 PUSH1 0x0 PUSH2 0x100 EXP DUP2 SLOAD DUP2 PUSH20 0xFFFFFFFFFFFFFFFFFFFFFFFFFFFFFFFFFFFFFFFF MUL NOT AND SWAP1 DUP4 PUSH20 0xFFFFFFFFFFFFFFFFFFFFFFFFFFFFFFFFFFFFFFFF AND MUL OR SWAP1 SSTORE POP SWAP2 PUSH1 0x20 ADD SWAP2 SWAP1 PUSH1 0x1 ADD SWAP1 PUSH3 0x58 JUMP JUMPDEST JUMPDEST POP SWAP1 POP PUSH3 0xC2 SWAP2 SWAP1 PUSH3 0xC6 JUMP JUMPDEST POP SWAP1 JUMP JUMPDEST JUMPDEST DUP1 DUP3 GT ISZERO PUSH3 0xE1 JUMPI PUSH1 0x0 DUP2 PUSH1 0x0 SWAP1 SSTORE POP PUSH1 0x1 ADD PUSH3 0xC7 JUMP JUMPDEST POP SWAP1 JUMP JUMPDEST PUSH1 0x0 PUSH1 0x40 MLOAD SWAP1 POP SWAP1 JUMP JUMPDEST PUSH1 0x0 DUP1 REVERT JUMPDEST PUSH1 0x0 DUP1 REVERT JUMPDEST PUSH1 0x0 PUSH1 0x1F NOT PUSH1 0x1F DUP4 ADD AND SWAP1 POP SWAP2 SWAP1 POP JUMP JUMPDEST PUSH32 0x4E487B7100000000000000000000000000000000000000000000000000000000 PUSH1 0x0 MSTORE PUSH1 0x41 PUSH1 0x4 MSTORE PUSH1 0x24 PUSH1 0x0 REVERT JUMPDEST PUSH3 0x144 DUP3 PUSH3 0xF9 JUMP JUMPDEST DUP2 ADD DUP2 DUP2 LT PUSH8 0xFFFFFFFFFFFFFFFF DUP3 GT OR ISZERO PUSH3 0x166 JUMPI PUSH3 0x165 PUSH3 0x10A JUMP JUMPDEST JUMPDEST DUP1 PUSH1 0x40 MSTORE POP POP POP JUMP JUMPDEST PUSH1 0x0 PUSH3 0x17B PUSH3 0xE5 JUMP JUMPDEST SWAP1 POP PUSH3 0x189 DUP3 DUP3 PUSH3 0x139 JUMP JUMPDEST SWAP2 SWAP1 POP JUMP JUMPDEST PUSH1 0x0 PUSH8 0xFFFFFFFFFFFFFFFF DUP3 GT ISZERO PUSH3 0x1AC JUMPI PUSH3 0x1AB PUSH3 0x10A JUMP JUMPDEST JUMPDEST PUSH1 0x20 DUP3 MUL SWAP1 POP SWAP2 SWAP1 POP JUMP JUMPDEST PUSH1 0x0 DUP1 REVERT JUMPDEST PUSH1 0x0 PUSH20 0xFFFFFFFFFFFFFFFFFFFFFFFFFFFFFFFFFFFFFFFF DUP3 AND SWAP1 POP SWAP2 SWAP1 POP JUMP JUMPDEST PUSH1 0x0 PUSH3 0x1E9 DUP3 PUSH3 0x1BC JUMP JUMPDEST SWAP1 POP SWAP2 SWAP1 POP JUMP JUMPDEST PUSH3 0x1FB DUP2 PUSH3 0x1DC JUMP JUMPDEST DUP2 EQ PUSH3 0x207 JUMPI PUSH1 0x0 DUP1 REVERT JUMPDEST POP JUMP JUMPDEST PUSH1 0x0 DUP2 MLOAD SWAP1 POP PUSH3 0x21B DUP2 PUSH3 0x1F0 JUMP JUMPDEST SWAP3 SWAP2 POP POP JUMP JUMPDEST PUSH1 0x0 PUSH3 0x238 PUSH3 0x232 DUP5 PUSH3 0x18E JUMP JUMPDEST PUSH3 0x16F JUMP JUMPDEST SWAP1 POP DUP1 PUSH1 0x20 DUP5 MUL DUP4 ADD DUP6 DUP2 GT ISZERO PUSH3 0x255 JUMPI PUSH3 0x254 PUSH3 0x1B7 JUMP JUMPDEST JUMPDEST DUP4 JUMPDEST DUP2 DUP2 LT ISZERO PUSH3 0x282 JUMPI DUP1 PUSH3 0x26D DUP9 DUP3 PUSH3 0x20A JUMP JUMPDEST DUP5 MSTORE PUSH1 0x20 DUP5 ADD SWAP4 POP POP PUSH1 0x20 DUP2 ADD SWAP1 POP PUSH3 0x257 JUMP JUMPDEST POP POP POP SWAP4 SWAP3 POP POP POP JUMP JUMPDEST PUSH1 0x0 DUP3 PUSH1 0x1F DUP4 ADD SLT PUSH3 0x2A4 JUMPI PUSH3 0x2A3 PUSH3 0xF4 JUMP JUMPDEST JUMPDEST PUSH1 0x2 PUSH3 0x2B3 DUP5 DUP3 DUP6 PUSH3 0x221 JUMP JUMPDEST SWAP2 POP POP SWAP3 SWAP2 POP POP JUMP JUMPDEST PUSH1 0x0 PUSH1 0x40 DUP3 DUP5 SUB SLT ISZERO PUSH3 0x2D5 JUMPI PUSH3 0x2D4 PUSH3 0xEF JUMP JUMPDEST JUMPDEST PUSH1 0x0 PUSH3 0x2E5 DUP5 DUP3 DUP6 ADD PUSH3 0x28C JUMP JUMPDEST SWAP2 POP POP SWAP3 SWAP2 POP POP JUMP JUMPDEST PUSH2 0xDB5 DUP1 PUSH3 0x2FE PUSH1 0x0 CODECOPY PUSH1 0x0 RETURN INVALID PUSH1 0x80 PUSH1 0x40 MSTORE PUSH1 0x4 CALLDATASIZE LT PUSH2 0x3F JUMPI PUSH1 0x0 CALLDATALOAD PUSH1 0xE0 SHR DUP1 PUSH4 0x25E7C27 EQ PUSH2 0x44 JUMPI DUP1 PUSH4 0x9A4B740B EQ PUSH2 0x81 JUMPI DUP1 PUSH4 0xD0E30DB0 EQ PUSH2 0xBE JUMPI DUP1 PUSH4 0xFFB485B8 EQ PUSH2 0xC8 JUMPI JUMPDEST PUSH1 0x0 DUP1 REVERT JUMPDEST CALLVALUE DUP1 ISZERO PUSH2 0x50 JUMPI PUSH1 0x0 DUP1 REVERT JUMPDEST POP PUSH2 0x6B PUSH1 0x4 DUP1 CALLDATASIZE SUB DUP2 ADD SWAP1 PUSH2 0x66 SWAP2 SWAP1 PUSH2 0x6A9 JUMP JUMPDEST PUSH2 0xF1 JUMP JUMPDEST PUSH1 0x40 MLOAD PUSH2 0x78 SWAP2 SWAP1 PUSH2 0x717 JUMP JUMPDEST PUSH1 0x40 MLOAD DUP1 SWAP2 SUB SWAP1 RETURN JUMPDEST CALLVALUE DUP1 ISZERO PUSH2 0x8D JUMPI PUSH1 0x0 DUP1 REVERT JUMPDEST POP PUSH2 0xA8 PUSH1 0x4 DUP1 CALLDATASIZE SUB DUP2 ADD SWAP1 PUSH2 0xA3 SWAP2 SWAP1 PUSH2 0x75E JUMP JUMPDEST PUSH2 0x127 JUMP JUMPDEST PUSH1 0x40 MLOAD PUSH2 0xB5 SWAP2 SWAP1 PUSH2 0x7B7 JUMP JUMPDEST PUSH1 0x40 MLOAD DUP1 SWAP2 SUB SWAP1 RETURN JUMPDEST PUSH2 0xC6 PUSH2 0x15A JUMP JUMPDEST STOP JUMPDEST CALLVALUE DUP1 ISZERO PUSH2 0xD4 JUMPI PUSH1 0x0 DUP1 REVERT JUMPDEST POP PUSH2 0xEF PUSH1 0x4 DUP1 CALLDATASIZE SUB DUP2 ADD SWAP1 PUSH2 0xEA SWAP2 SWAP1 PUSH2 0x9EC JUMP JUMPDEST PUSH2 0x15C JUMP JUMPDEST STOP JUMPDEST PUSH1 0x0 DUP2 PUSH1 0x2 DUP2 LT PUSH2 0x101 JUMPI PUSH1 0x0 DUP1 REVERT JUMPDEST ADD PUSH1 0x0 SWAP2 POP SLOAD SWAP1 PUSH2 0x100 EXP SWAP1 DIV PUSH20 0xFFFFFFFFFFFFFFFFFFFFFFFFFFFFFFFFFFFFFFFF AND DUP2 JUMP JUMPDEST PUSH1 0x0 DUP3 DUP3 PUSH1 0x40 MLOAD PUSH1 0x20 ADD PUSH2 0x13C SWAP3 SWAP2 SWAP1 PUSH2 0xAC4 JUMP JUMPDEST PUSH1 0x40 MLOAD PUSH1 0x20 DUP2 DUP4 SUB SUB DUP2 MSTORE SWAP1 PUSH1 0x40 MSTORE DUP1 MLOAD SWAP1 PUSH1 0x20 ADD KECCAK256 SWAP1 POP SWAP3 SWAP2 POP POP JUMP JUMPDEST JUMP JUMPDEST PUSH1 0x0 PUSH2 0x168 DUP5 DUP5 PUSH2 0x127 JUMP JUMPDEST SWAP1 POP PUSH2 0x174 DUP3 DUP3 PUSH2 0x266 JUMP JUMPDEST PUSH2 0x1B3 JUMPI PUSH1 0x40 MLOAD PUSH32 0x8C379A000000000000000000000000000000000000000000000000000000000 DUP2 MSTORE PUSH1 0x4 ADD PUSH2 0x1AA SWAP1 PUSH2 0xB4D JUMP JUMPDEST PUSH1 0x40 MLOAD DUP1 SWAP2 SUB SWAP1 REVERT JUMPDEST PUSH1 0x0 DUP5 PUSH20 0xFFFFFFFFFFFFFFFFFFFFFFFFFFFFFFFFFFFFFFFF AND DUP5 PUSH1 0x40 MLOAD PUSH2 0x1D9 SWAP1 PUSH2 0xB9E JUMP JUMPDEST PUSH1 0x0 PUSH1 0x40 MLOAD DUP1 DUP4 SUB DUP2 DUP6 DUP8 GAS CALL SWAP3 POP POP POP RETURNDATASIZE DUP1 PUSH1 0x0 DUP2 EQ PUSH2 0x216 JUMPI PUSH1 0x40 MLOAD SWAP2 POP PUSH1 0x1F NOT PUSH1 0x3F RETURNDATASIZE ADD AND DUP3 ADD PUSH1 0x40 MSTORE RETURNDATASIZE DUP3 MSTORE RETURNDATASIZE PUSH1 0x0 PUSH1 0x20 DUP5 ADD RETURNDATACOPY PUSH2 0x21B JUMP JUMPDEST PUSH1 0x60 SWAP2 POP JUMPDEST POP POP SWAP1 POP DUP1 PUSH2 0x25F JUMPI PUSH1 0x40 MLOAD PUSH32 0x8C379A000000000000000000000000000000000000000000000000000000000 DUP2 MSTORE PUSH1 0x4 ADD PUSH2 0x256 SWAP1 PUSH2 0xBFF JUMP JUMPDEST PUSH1 0x40 MLOAD DUP1 SWAP2 SUB SWAP1 REVERT JUMPDEST POP POP POP POP POP JUMP JUMPDEST PUSH1 0x0 DUP1 PUSH2 0x272 DUP4 PUSH2 0x349 JUMP JUMPDEST SWAP1 POP PUSH1 0x0 JUMPDEST PUSH1 0x2 DUP2 LT ISZERO PUSH2 0x33C JUMPI PUSH1 0x0 PUSH2 0x2AC DUP7 DUP4 PUSH1 0x2 DUP2 LT PUSH2 0x298 JUMPI PUSH2 0x297 PUSH2 0xC1F JUMP JUMPDEST JUMPDEST PUSH1 0x20 MUL ADD MLOAD DUP5 PUSH2 0x37F SWAP1 SWAP2 SWAP1 PUSH4 0xFFFFFFFF AND JUMP JUMPDEST SWAP1 POP PUSH1 0x0 DUP1 DUP4 PUSH1 0x2 DUP2 LT PUSH2 0x2C3 JUMPI PUSH2 0x2C2 PUSH2 0xC1F JUMP JUMPDEST JUMPDEST ADD PUSH1 0x0 SWAP1 SLOAD SWAP1 PUSH2 0x100 EXP SWAP1 DIV PUSH20 0xFFFFFFFFFFFFFFFFFFFFFFFFFFFFFFFFFFFFFFFF AND PUSH20 0xFFFFFFFFFFFFFFFFFFFFFFFFFFFFFFFFFFFFFFFF AND DUP3 PUSH20 0xFFFFFFFFFFFFFFFFFFFFFFFFFFFFFFFFFFFFFFFF AND EQ SWAP1 POP DUP1 PUSH2 0x327 JUMPI PUSH1 0x0 SWAP5 POP POP POP POP POP PUSH2 0x343 JUMP JUMPDEST POP POP DUP1 DUP1 PUSH2 0x334 SWAP1 PUSH2 0xC7D JUMP JUMPDEST SWAP2 POP POP PUSH2 0x277 JUMP JUMPDEST POP PUSH1 0x1 SWAP2 POP POP JUMPDEST SWAP3 SWAP2 POP POP JUMP JUMPDEST PUSH1 0x0 PUSH32 0x19457468657265756D205369676E6564204D6573736167653A0A333200000000 PUSH1 0x0 MSTORE DUP2 PUSH1 0x1C MSTORE PUSH1 0x3C PUSH1 0x0 KECCAK256 SWAP1 POP SWAP2 SWAP1 POP JUMP JUMPDEST PUSH1 0x0 DUP1 PUSH1 0x0 DUP1 PUSH2 0x38F DUP7 DUP7 PUSH2 0x3AB JUMP JUMPDEST SWAP3 POP SWAP3 POP SWAP3 POP PUSH2 0x39F DUP3 DUP3 PUSH2 0x407 JUMP JUMPDEST DUP3 SWAP4 POP POP POP POP SWAP3 SWAP2 POP POP JUMP JUMPDEST PUSH1 0x0 DUP1 PUSH1 0x0 PUSH1 0x41 DUP5 MLOAD SUB PUSH2 0x3F0 JUMPI PUSH1 0x0 DUP1 PUSH1 0x0 PUSH1 0x20 DUP8 ADD MLOAD SWAP3 POP PUSH1 0x40 DUP8 ADD MLOAD SWAP2 POP PUSH1 0x60 DUP8 ADD MLOAD PUSH1 0x0 BYTE SWAP1 POP PUSH2 0x3E2 DUP9 DUP3 DUP6 DUP6 PUSH2 0x56B JUMP JUMPDEST SWAP6 POP SWAP6 POP SWAP6 POP POP POP POP PUSH2 0x400 JUMP JUMPDEST PUSH1 0x0 PUSH1 0x2 DUP6 MLOAD PUSH1 0x0 SHL SWAP3 POP SWAP3 POP SWAP3 POP JUMPDEST SWAP3 POP SWAP3 POP SWAP3 JUMP JUMPDEST PUSH1 0x0 PUSH1 0x3 DUP2 GT ISZERO PUSH2 0x41B JUMPI PUSH2 0x41A PUSH2 0xCC5 JUMP JUMPDEST JUMPDEST DUP3 PUSH1 0x3 DUP2 GT ISZERO PUSH2 0x42E JUMPI PUSH2 0x42D PUSH2 0xCC5 JUMP JUMPDEST JUMPDEST SUB ISZERO PUSH2 0x567 JUMPI PUSH1 0x1 PUSH1 0x3 DUP2 GT ISZERO PUSH2 0x448 JUMPI PUSH2 0x447 PUSH2 0xCC5 JUMP JUMPDEST JUMPDEST DUP3 PUSH1 0x3 DUP2 GT ISZERO PUSH2 0x45B JUMPI PUSH2 0x45A PUSH2 0xCC5 JUMP JUMPDEST JUMPDEST SUB PUSH2 0x492 JUMPI PUSH1 0x40 MLOAD PUSH32 0xF645EEDF00000000000000000000000000000000000000000000000000000000 DUP2 MSTORE PUSH1 0x4 ADD PUSH1 0x40 MLOAD DUP1 SWAP2 SUB SWAP1 REVERT JUMPDEST PUSH1 0x2 PUSH1 0x3 DUP2 GT ISZERO PUSH2 0x4A6 JUMPI PUSH2 0x4A5 PUSH2 0xCC5 JUMP JUMPDEST JUMPDEST DUP3 PUSH1 0x3 DUP2 GT ISZERO PUSH2 0x4B9 JUMPI PUSH2 0x4B8 PUSH2 0xCC5 JUMP JUMPDEST JUMPDEST SUB PUSH2 0x4FE JUMPI DUP1 PUSH1 0x0 SHR PUSH1 0x40 MLOAD PUSH32 0xFCE698F700000000000000000000000000000000000000000000000000000000 DUP2 MSTORE PUSH1 0x4 ADD PUSH2 0x4F5 SWAP2 SWAP1 PUSH2 0xD03 JUMP JUMPDEST PUSH1 0x40 MLOAD DUP1 SWAP2 SUB SWAP1 REVERT JUMPDEST PUSH1 0x3 DUP1 DUP2 GT ISZERO PUSH2 0x511 JUMPI PUSH2 0x510 PUSH2 0xCC5 JUMP JUMPDEST JUMPDEST DUP3 PUSH1 0x3 DUP2 GT ISZERO PUSH2 0x524 JUMPI PUSH2 0x523 PUSH2 0xCC5 JUMP JUMPDEST JUMPDEST SUB PUSH2 0x566 JUMPI DUP1 PUSH1 0x40 MLOAD PUSH32 0xD78BCE0C00000000000000000000000000000000000000000000000000000000 DUP2 MSTORE PUSH1 0x4 ADD PUSH2 0x55D SWAP2 SWAP1 PUSH2 0x7B7 JUMP JUMPDEST PUSH1 0x40 MLOAD DUP1 SWAP2 SUB SWAP1 REVERT JUMPDEST JUMPDEST POP POP JUMP JUMPDEST PUSH1 0x0 DUP1 PUSH1 0x0 PUSH32 0x7FFFFFFFFFFFFFFFFFFFFFFFFFFFFFFF5D576E7357A4501DDFE92F46681B20A0 DUP5 PUSH1 0x0 SHR GT ISZERO PUSH2 0x5AB JUMPI PUSH1 0x0 PUSH1 0x3 DUP6 SWAP3 POP SWAP3 POP SWAP3 POP PUSH2 0x655 JUMP JUMPDEST PUSH1 0x0 PUSH1 0x1 DUP9 DUP9 DUP9 DUP9 PUSH1 0x40 MLOAD PUSH1 0x0 DUP2 MSTORE PUSH1 0x20 ADD PUSH1 0x40 MSTORE PUSH1 0x40 MLOAD PUSH2 0x5D0 SWAP5 SWAP4 SWAP3 SWAP2 SWAP1 PUSH2 0xD3A JUMP JUMPDEST PUSH1 0x20 PUSH1 0x40 MLOAD PUSH1 0x20 DUP2 SUB SWAP1 DUP1 DUP5 SUB SWAP1 DUP6 GAS STATICCALL ISZERO DUP1 ISZERO PUSH2 0x5F2 JUMPI RETURNDATASIZE PUSH1 0x0 DUP1 RETURNDATACOPY RETURNDATASIZE PUSH1 0x0 REVERT JUMPDEST POP POP POP PUSH1 0x20 PUSH1 0x40 MLOAD SUB MLOAD SWAP1 POP PUSH1 0x0 PUSH20 0xFFFFFFFFFFFFFFFFFFFFFFFFFFFFFFFFFFFFFFFF AND DUP2 PUSH20 0xFFFFFFFFFFFFFFFFFFFFFFFFFFFFFFFFFFFFFFFF AND SUB PUSH2 0x646 JUMPI PUSH1 0x0 PUSH1 0x1 PUSH1 0x0 DUP1 SHL SWAP4 POP SWAP4 POP SWAP4 POP POP PUSH2 0x655 JUMP JUMPDEST DUP1 PUSH1 0x0 DUP1 PUSH1 0x0 SHL SWAP4 POP SWAP4 POP SWAP4 POP POP JUMPDEST SWAP5 POP SWAP5 POP SWAP5 SWAP2 POP POP JUMP JUMPDEST PUSH1 0x0 PUSH1 0x40 MLOAD SWAP1 POP SWAP1 JUMP JUMPDEST PUSH1 0x0 DUP1 REVERT JUMPDEST PUSH1 0x0 DUP1 REVERT JUMPDEST PUSH1 0x0 DUP2 SWAP1 POP SWAP2 SWAP1 POP JUMP JUMPDEST PUSH2 0x686 DUP2 PUSH2 0x673 JUMP JUMPDEST DUP2 EQ PUSH2 0x691 JUMPI PUSH1 0x0 DUP1 REVERT JUMPDEST POP JUMP JUMPDEST PUSH1 0x0 DUP2 CALLDATALOAD SWAP1 POP PUSH2 0x6A3 DUP2 PUSH2 0x67D JUMP JUMPDEST SWAP3 SWAP2 POP POP JUMP JUMPDEST PUSH1 0x0 PUSH1 0x20 DUP3 DUP5 SUB SLT ISZERO PUSH2 0x6BF JUMPI PUSH2 0x6BE PUSH2 0x669 JUMP JUMPDEST JUMPDEST PUSH1 0x0 PUSH2 0x6CD DUP5 DUP3 DUP6 ADD PUSH2 0x694 JUMP JUMPDEST SWAP2 POP POP SWAP3 SWAP2 POP POP JUMP JUMPDEST PUSH1 0x0 PUSH20 0xFFFFFFFFFFFFFFFFFFFFFFFFFFFFFFFFFFFFFFFF DUP3 AND SWAP1 POP SWAP2 SWAP1 POP JUMP JUMPDEST PUSH1 0x0 PUSH2 0x701 DUP3 PUSH2 0x6D6 JUMP JUMPDEST SWAP1 POP SWAP2 SWAP1 POP JUMP JUMPDEST PUSH2 0x711 DUP2 PUSH2 0x6F6 JUMP JUMPDEST DUP3 MSTORE POP POP JUMP JUMPDEST PUSH1 0x0 PUSH1 0x20 DUP3 ADD SWAP1 POP PUSH2 0x72C PUSH1 0x0 DUP4 ADD DUP5 PUSH2 0x708 JUMP JUMPDEST SWAP3 SWAP2 POP POP JUMP JUMPDEST PUSH2 0x73B DUP2 PUSH2 0x6F6 JUMP JUMPDEST DUP2 EQ PUSH2 0x746 JUMPI PUSH1 0x0 DUP1 REVERT JUMPDEST POP JUMP JUMPDEST PUSH1 0x0 DUP2 CALLDATALOAD SWAP1 POP PUSH2 0x758 DUP2 PUSH2 0x732 JUMP JUMPDEST SWAP3 SWAP2 POP POP JUMP JUMPDEST PUSH1 0x0 DUP1 PUSH1 0x40 DUP4 DUP6 SUB SLT ISZERO PUSH2 0x775 JUMPI PUSH2 0x774 PUSH2 0x669 JUMP JUMPDEST JUMPDEST PUSH1 0x0 PUSH2 0x783 DUP6 DUP3 DUP7 ADD PUSH2 0x749 JUMP JUMPDEST SWAP3 POP POP PUSH1 0x20 PUSH2 0x794 DUP6 DUP3 DUP7 ADD PUSH2 0x694 JUMP JUMPDEST SWAP2 POP POP SWAP3 POP SWAP3 SWAP1 POP JUMP JUMPDEST PUSH1 0x0 DUP2 SWAP1 POP SWAP2 SWAP1 POP JUMP JUMPDEST PUSH2 0x7B1 DUP2 PUSH2 0x79E JUMP JUMPDEST DUP3 MSTORE POP POP JUMP JUMPDEST PUSH1 0x0 PUSH1 0x20 DUP3 ADD SWAP1 POP PUSH2 0x7CC PUSH1 0x0 DUP4 ADD DUP5 PUSH2 0x7A8 JUMP JUMPDEST SWAP3 SWAP2 POP POP JUMP JUMPDEST PUSH1 0x0 DUP1 REVERT JUMPDEST PUSH1 0x0 PUSH1 0x1F NOT PUSH1 0x1F DUP4 ADD AND SWAP1 POP SWAP2 SWAP1 POP JUMP JUMPDEST PUSH32 0x4E487B7100000000000000000000000000000000000000000000000000000000 PUSH1 0x0 MSTORE PUSH1 0x41 PUSH1 0x4 MSTORE PUSH1 0x24 PUSH1 0x0 REVERT JUMPDEST PUSH2 0x820 DUP3 PUSH2 0x7D7 JUMP JUMPDEST DUP2 ADD DUP2 DUP2 LT PUSH8 0xFFFFFFFFFFFFFFFF DUP3 GT OR ISZERO PUSH2 0x83F JUMPI PUSH2 0x83E PUSH2 0x7E8 JUMP JUMPDEST JUMPDEST DUP1 PUSH1 0x40 MSTORE POP POP POP JUMP JUMPDEST PUSH1 0x0 PUSH2 0x852 PUSH2 0x65F JUMP JUMPDEST SWAP1 POP PUSH2 0x85E DUP3 DUP3 PUSH2 0x817 JUMP JUMPDEST SWAP2 SWAP1 POP JUMP JUMPDEST PUSH1 0x0 PUSH8 0xFFFFFFFFFFFFFFFF DUP3 GT ISZERO PUSH2 0x87E JUMPI PUSH2 0x87D PUSH2 0x7E8 JUMP JUMPDEST JUMPDEST PUSH1 0x20 DUP3 MUL SWAP1 POP SWAP2 SWAP1 POP JUMP JUMPDEST PUSH1 0x0 DUP1 REVERT JUMPDEST PUSH1 0x0 DUP1 REVERT JUMPDEST PUSH1 0x0 PUSH8 0xFFFFFFFFFFFFFFFF DUP3 GT ISZERO PUSH2 0x8AE JUMPI PUSH2 0x8AD PUSH2 0x7E8 JUMP JUMPDEST JUMPDEST PUSH2 0x8B7 DUP3 PUSH2 0x7D7 JUMP JUMPDEST SWAP1 POP PUSH1 0x20 DUP2 ADD SWAP1 POP SWAP2 SWAP1 POP JUMP JUMPDEST DUP3 DUP2 DUP4 CALLDATACOPY PUSH1 0x0 DUP4 DUP4 ADD MSTORE POP POP POP JUMP JUMPDEST PUSH1 0x0 PUSH2 0x8E6 PUSH2 0x8E1 DUP5 PUSH2 0x893 JUMP JUMPDEST PUSH2 0x848 JUMP JUMPDEST SWAP1 POP DUP3 DUP2 MSTORE PUSH1 0x20 DUP2 ADD DUP5 DUP5 DUP5 ADD GT ISZERO PUSH2 0x902 JUMPI PUSH2 0x901 PUSH2 0x88E JUMP JUMPDEST JUMPDEST PUSH2 0x90D DUP5 DUP3 DUP6 PUSH2 0x8C4 JUMP JUMPDEST POP SWAP4 SWAP3 POP POP POP JUMP JUMPDEST PUSH1 0x0 DUP3 PUSH1 0x1F DUP4 ADD SLT PUSH2 0x92A JUMPI PUSH2 0x929 PUSH2 0x7D2 JUMP JUMPDEST JUMPDEST DUP2 CALLDATALOAD PUSH2 0x93A DUP5 DUP3 PUSH1 0x20 DUP7 ADD PUSH2 0x8D3 JUMP JUMPDEST SWAP2 POP POP SWAP3 SWAP2 POP POP JUMP JUMPDEST PUSH1 0x0 PUSH2 0x956 PUSH2 0x951 DUP5 PUSH2 0x863 JUMP JUMPDEST PUSH2 0x848 JUMP JUMPDEST SWAP1 POP DUP1 PUSH1 0x20 DUP5 MUL DUP4 ADD DUP6 DUP2 GT ISZERO PUSH2 0x970 JUMPI PUSH2 0x96F PUSH2 0x889 JUMP JUMPDEST JUMPDEST DUP4 JUMPDEST DUP2 DUP2 LT ISZERO PUSH2 0x9B7 JUMPI DUP1 CALLDATALOAD PUSH8 0xFFFFFFFFFFFFFFFF DUP2 GT ISZERO PUSH2 0x995 JUMPI PUSH2 0x994 PUSH2 0x7D2 JUMP JUMPDEST JUMPDEST DUP1 DUP7 ADD PUSH2 0x9A2 DUP10 DUP3 PUSH2 0x915 JUMP JUMPDEST DUP6 MSTORE PUSH1 0x20 DUP6 ADD SWAP5 POP POP POP PUSH1 0x20 DUP2 ADD SWAP1 POP PUSH2 0x972 JUMP JUMPDEST POP POP POP SWAP4 SWAP3 POP POP POP JUMP JUMPDEST PUSH1 0x0 DUP3 PUSH1 0x1F DUP4 ADD SLT PUSH2 0x9D6 JUMPI PUSH2 0x9D5 PUSH2 0x7D2 JUMP JUMPDEST JUMPDEST PUSH1 0x2 PUSH2 0x9E3 DUP5 DUP3 DUP6 PUSH2 0x943 JUMP JUMPDEST SWAP2 POP POP SWAP3 SWAP2 POP POP JUMP JUMPDEST PUSH1 0x0 DUP1 PUSH1 0x0 PUSH1 0x60 DUP5 DUP7 SUB SLT ISZERO PUSH2 0xA05 JUMPI PUSH2 0xA04 PUSH2 0x669 JUMP JUMPDEST JUMPDEST PUSH1 0x0 PUSH2 0xA13 DUP7 DUP3 DUP8 ADD PUSH2 0x749 JUMP JUMPDEST SWAP4 POP POP PUSH1 0x20 PUSH2 0xA24 DUP7 DUP3 DUP8 ADD PUSH2 0x694 JUMP JUMPDEST SWAP3 POP POP PUSH1 0x40 DUP5 ADD CALLDATALOAD PUSH8 0xFFFFFFFFFFFFFFFF DUP2 GT ISZERO PUSH2 0xA45 JUMPI PUSH2 0xA44 PUSH2 0x66E JUMP JUMPDEST JUMPDEST PUSH2 0xA51 DUP7 DUP3 DUP8 ADD PUSH2 0x9C1 JUMP JUMPDEST SWAP2 POP POP SWAP3 POP SWAP3 POP SWAP3 JUMP JUMPDEST PUSH1 0x0 DUP2 PUSH1 0x60 SHL SWAP1 POP SWAP2 SWAP1 POP JUMP JUMPDEST PUSH1 0x0 PUSH2 0xA73 DUP3 PUSH2 0xA5B JUMP JUMPDEST SWAP1 POP SWAP2 SWAP1 POP JUMP JUMPDEST PUSH1 0x0 PUSH2 0xA85 DUP3 PUSH2 0xA68 JUMP JUMPDEST SWAP1 POP SWAP2 SWAP1 POP JUMP JUMPDEST PUSH2 0xA9D PUSH2 0xA98 DUP3 PUSH2 0x6F6 JUMP JUMPDEST PUSH2 0xA7A JUMP JUMPDEST DUP3 MSTORE POP POP JUMP JUMPDEST PUSH1 0x0 DUP2 SWAP1 POP SWAP2 SWAP1 POP JUMP JUMPDEST PUSH2 0xABE PUSH2 0xAB9 DUP3 PUSH2 0x673 JUMP JUMPDEST PUSH2 0xAA3 JUMP JUMPDEST DUP3 MSTORE POP POP JUMP JUMPDEST PUSH1 0x0 PUSH2 0xAD0 DUP3 DUP6 PUSH2 0xA8C JUMP JUMPDEST PUSH1 0x14 DUP3 ADD SWAP2 POP PUSH2 0xAE0 DUP3 DUP5 PUSH2 0xAAD JUMP JUMPDEST PUSH1 0x20 DUP3 ADD SWAP2 POP DUP2 SWAP1 POP SWAP4 SWAP3 POP POP POP JUMP JUMPDEST PUSH1 0x0 DUP3 DUP3 MSTORE PUSH1 0x20 DUP3 ADD SWAP1 POP SWAP3 SWAP2 POP POP JUMP JUMPDEST PUSH32 0x696E76616C696420736967000000000000000000000000000000000000000000 PUSH1 0x0 DUP3 ADD MSTORE POP JUMP JUMPDEST PUSH1 0x0 PUSH2 0xB37 PUSH1 0xB DUP4 PUSH2 0xAF0 JUMP JUMPDEST SWAP2 POP PUSH2 0xB42 DUP3 PUSH2 0xB01 JUMP JUMPDEST PUSH1 0x20 DUP3 ADD SWAP1 POP SWAP2 SWAP1 POP JUMP JUMPDEST PUSH1 0x0 PUSH1 0x20 DUP3 ADD SWAP1 POP DUP2 DUP2 SUB PUSH1 0x0 DUP4 ADD MSTORE PUSH2 0xB66 DUP2 PUSH2 0xB2A JUMP JUMPDEST SWAP1 POP SWAP2 SWAP1 POP JUMP JUMPDEST PUSH1 0x0 DUP2 SWAP1 POP SWAP3 SWAP2 POP POP JUMP JUMPDEST POP JUMP JUMPDEST PUSH1 0x0 PUSH2 0xB88 PUSH1 0x0 DUP4 PUSH2 0xB6D JUMP JUMPDEST SWAP2 POP PUSH2 0xB93 DUP3 PUSH2 0xB78 JUMP JUMPDEST PUSH1 0x0 DUP3 ADD SWAP1 POP SWAP2 SWAP1 POP JUMP JUMPDEST PUSH1 0x0 PUSH2 0xBA9 DUP3 PUSH2 0xB7B JUMP JUMPDEST SWAP2 POP DUP2 SWAP1 POP SWAP2 SWAP1 POP JUMP JUMPDEST PUSH32 0x4661696C656420746F2073656E64204574686572000000000000000000000000 PUSH1 0x0 DUP3 ADD MSTORE POP JUMP JUMPDEST PUSH1 0x0 PUSH2 0xBE9 PUSH1 0x14 DUP4 PUSH2 0xAF0 JUMP JUMPDEST SWAP2 POP PUSH2 0xBF4 DUP3 PUSH2 0xBB3 JUMP JUMPDEST PUSH1 0x20 DUP3 ADD SWAP1 POP SWAP2 SWAP1 POP JUMP JUMPDEST PUSH1 0x0 PUSH1 0x20 DUP3 ADD SWAP1 POP DUP2 DUP2 SUB PUSH1 0x0 DUP4 ADD MSTORE PUSH2 0xC18 DUP2 PUSH2 0xBDC JUMP JUMPDEST SWAP1 POP SWAP2 SWAP1 POP JUMP JUMPDEST PUSH32 0x4E487B7100000000000000000000000000000000000000000000000000000000 PUSH1 0x0 MSTORE PUSH1 0x32 PUSH1 0x4 MSTORE PUSH1 0x24 PUSH1 0x0 REVERT JUMPDEST PUSH32 0x4E487B7100000000000000000000000000000000000000000000000000000000 PUSH1 0x0 MSTORE PUSH1 0x11 PUSH1 0x4 MSTORE PUSH1 0x24 PUSH1 0x0 REVERT JUMPDEST PUSH1 0x0 PUSH2 0xC88 DUP3 PUSH2 0x673 JUMP JUMPDEST SWAP2 POP PUSH32 0xFFFFFFFFFFFFFFFFFFFFFFFFFFFFFFFFFFFFFFFFFFFFFFFFFFFFFFFFFFFFFFFF DUP3 SUB PUSH2 0xCBA JUMPI PUSH2 0xCB9 PUSH2 0xC4E JUMP JUMPDEST JUMPDEST PUSH1 0x1 DUP3 ADD SWAP1 POP SWAP2 SWAP1 POP JUMP JUMPDEST PUSH32 0x4E487B7100000000000000000000000000000000000000000000000000000000 PUSH1 0x0 MSTORE PUSH1 0x21 PUSH1 0x4 MSTORE PUSH1 0x24 PUSH1 0x0 REVERT JUMPDEST PUSH2 0xCFD DUP2 PUSH2 0x673 JUMP JUMPDEST DUP3 MSTORE POP POP JUMP JUMPDEST PUSH1 0x0 PUSH1 0x20 DUP3 ADD SWAP1 POP PUSH2 0xD18 PUSH1 0x0 DUP4 ADD DUP5 PUSH2 0xCF4 JUMP JUMPDEST SWAP3 SWAP2 POP POP JUMP JUMPDEST PUSH1 0x0 PUSH1 0xFF DUP3 AND SWAP1 POP SWAP2 SWAP1 POP JUMP JUMPDEST PUSH2 0xD34 DUP2 PUSH2 0xD1E JUMP JUMPDEST DUP3 MSTORE POP POP JUMP JUMPDEST PUSH1 0x0 PUSH1 0x80 DUP3 ADD SWAP1 POP PUSH2 0xD4F PUSH1 0x0 DUP4 ADD DUP8 PUSH2 0x7A8 JUMP JUMPDEST PUSH2 0xD5C PUSH1 0x20 DUP4 ADD DUP7 PUSH2 0xD2B JUMP JUMPDEST PUSH2 0xD69 PUSH1 0x40 DUP4 ADD DUP6 PUSH2 0x7A8 JUMP JUMPDEST PUSH2 0xD76 PUSH1 0x60 DUP4 ADD DUP5 PUSH2 0x7A8 JUMP JUMPDEST SWAP6 SWAP5 POP POP POP POP POP JUMP INVALID LOG2 PUSH5 0x6970667358 0x22 SLT KECCAK256 DUP5 PUSH7 0x4D27EC80EF41C1 SLT DIV AND SDIV PUSH23 0xBC744995F73461E039BD3E39474077BC638064736F6C63 NUMBER STOP ADDMOD EQ STOP CALLER "},"methodIdentifiers":{"deposit()":"d0e30db0","getTxHash(address,uint256)":"9a4b740b","owners(uint256)":"025e7c27","transfer(address,uint256,bytes[2])":"ffb485b8"}}}}}